{
  "_format": "hh-sol-artifact-1",
  "contractName": "Staking",
  "sourceName": "contracts/Staking.sol",
  "abi": [
    {
      "inputs": [
        {
          "internalType": "contract IERC20",
          "name": "_TST",
          "type": "address"
        }
      ],
      "stateMutability": "nonpayable",
      "type": "constructor"
    },
    {
      "anonymous": false,
      "inputs": [
        {
          "indexed": true,
          "internalType": "address",
          "name": "previousOwner",
          "type": "address"
        },
        {
          "indexed": true,
          "internalType": "address",
          "name": "newOwner",
          "type": "address"
        }
      ],
      "name": "OwnershipTransferred",
      "type": "event"
    },
    {
      "anonymous": false,
      "inputs": [
        {
          "indexed": false,
          "internalType": "uint256",
          "name": "stakeId",
          "type": "uint256"
        },
        {
          "indexed": false,
          "internalType": "address",
          "name": "staker",
          "type": "address"
        }
      ],
      "name": "deposit",
      "type": "event"
    },
    {
      "anonymous": false,
      "inputs": [
        {
          "indexed": false,
          "internalType": "uint256",
          "name": "stakeId",
          "type": "uint256"
        },
        {
          "indexed": false,
          "internalType": "address",
          "name": "claimer",
          "type": "address"
        }
      ],
      "name": "withdrawal",
      "type": "event"
    },
    {
      "inputs": [],
      "name": "TST",
      "outputs": [
        {
          "internalType": "contract IERC20",
          "name": "",
          "type": "address"
        }
      ],
      "stateMutability": "view",
      "type": "function"
    },
    {
      "inputs": [
        {
          "internalType": "uint256",
          "name": "_stakeNumber",
          "type": "uint256"
        }
      ],
      "name": "claim",
      "outputs": [],
      "stateMutability": "nonpayable",
      "type": "function"
    },
    {
      "inputs": [],
      "name": "owner",
      "outputs": [
        {
          "internalType": "address",
          "name": "",
          "type": "address"
        }
      ],
      "stateMutability": "view",
      "type": "function"
    },
    {
      "inputs": [
        {
          "internalType": "uint256",
          "name": "",
          "type": "uint256"
        }
      ],
      "name": "rewards",
      "outputs": [
        {
          "internalType": "uint256",
          "name": "",
          "type": "uint256"
        }
      ],
      "stateMutability": "view",
      "type": "function"
    },
    {
      "inputs": [
        {
          "internalType": "uint256",
          "name": "",
          "type": "uint256"
        }
      ],
      "name": "rewards_",
      "outputs": [
        {
          "internalType": "uint256",
          "name": "",
          "type": "uint256"
        }
      ],
      "stateMutability": "view",
      "type": "function"
    },
    {
      "inputs": [
        {
          "internalType": "address",
          "name": "_staker",
          "type": "address"
        },
        {
          "internalType": "uint256",
          "name": "_stakeNumber",
          "type": "uint256"
        }
      ],
      "name": "sendBackDeposit",
      "outputs": [],
      "stateMutability": "nonpayable",
      "type": "function"
    },
    {
      "inputs": [
        {
          "internalType": "uint256",
          "name": "_percent",
          "type": "uint256"
        },
        {
          "internalType": "uint256",
          "name": "_timeInDays",
          "type": "uint256"
        }
      ],
      "name": "setRewards",
      "outputs": [],
      "stateMutability": "nonpayable",
      "type": "function"
    },
    {
      "inputs": [],
      "name": "setStakeToggle",
      "outputs": [],
      "stateMutability": "nonpayable",
      "type": "function"
    },
    {
      "inputs": [
        {
          "internalType": "uint256",
          "name": "_amount",
          "type": "uint256"
        },
        {
          "internalType": "uint256",
          "name": "_timeInDays",
          "type": "uint256"
        }
      ],
      "name": "stake",
      "outputs": [],
      "stateMutability": "nonpayable",
      "type": "function"
    },
    {
      "inputs": [
        {
          "internalType": "address",
          "name": "",
          "type": "address"
        },
        {
          "internalType": "uint256",
          "name": "",
          "type": "uint256"
        }
      ],
      "name": "stakeBalances",
      "outputs": [
        {
          "internalType": "uint256",
          "name": "amount",
          "type": "uint256"
        },
        {
          "internalType": "uint256",
          "name": "startAt",
          "type": "uint256"
        },
        {
          "internalType": "uint256",
          "name": "endAt",
          "type": "uint256"
        },
        {
          "internalType": "uint256",
          "name": "rewardValue",
          "type": "uint256"
        },
        {
          "internalType": "bool",
          "name": "withdraw",
          "type": "bool"
        }
      ],
      "stateMutability": "view",
      "type": "function"
    },
    {
      "inputs": [
        {
          "internalType": "address",
          "name": "",
          "type": "address"
        }
      ],
      "name": "stakeNonce",
      "outputs": [
        {
          "internalType": "uint256",
          "name": "_value",
          "type": "uint256"
        }
      ],
      "stateMutability": "view",
      "type": "function"
    },
    {
      "inputs": [],
      "name": "stakingEnabled",
      "outputs": [
        {
          "internalType": "bool",
          "name": "",
          "type": "bool"
        }
      ],
      "stateMutability": "view",
      "type": "function"
    },
    {
      "inputs": [
        {
          "internalType": "address",
          "name": "",
          "type": "address"
        }
      ],
      "name": "tokensStakedByAddress",
      "outputs": [
        {
          "internalType": "uint256",
          "name": "",
          "type": "uint256"
        }
      ],
      "stateMutability": "view",
      "type": "function"
    },
    {
      "inputs": [
        {
          "internalType": "address",
          "name": "newOwner",
          "type": "address"
        }
      ],
      "name": "transferOwnership",
      "outputs": [],
      "stateMutability": "nonpayable",
      "type": "function"
    }
  ],
  "bytecode": "0x60a06040523480156200001157600080fd5b50604051620043dc380380620043dc833981810160405281019062000037919062000525565b6200006b7f392d5a4b8b1942d829819861f2f88f18cef991cbaf83cfb688250211e56ffac760001b620001ca60201b60201c565b6200009f7ff1208f2dd50a773d8d3070734422516aba53c41a1a71571083ba6d81a9350c0f60001b620001ca60201b60201c565b620000d37f0cf00cd04a00ae26ef16e15bbb3d198f57bd0fabb52a5fa09b2392c9a6afee4b60001b620001ca60201b60201c565b620000f3620000e7620001cd60201b60201c565b6200027160201b60201c565b620001277f5c85f73017d2590256ec7a988726200d6a2bdce5273a291b4b25bb8afc7cc43860001b620004a160201b60201c565b6200015b7f561331eab2c820c1f9a41a9d6237437cabb2d0600a4322872ba28ff11af76a3060001b620004a160201b60201c565b6200018f7fdd6f25c14c5394ab4ded86a9b63c3bbe3dd331b6880101282208833cfba8f99f60001b620004a160201b60201c565b8073ffffffffffffffffffffffffffffffffffffffff1660808173ffffffffffffffffffffffffffffffffffffffff16815250505062000557565b50565b6000620002037f6ef73a9be3d0833f33b62e6f2c5284fcaa8715d29587a1e2e8e99097c289922160001b620004a460201b60201c565b620002377f05089e3f72f0c307dc8905df6d1e3ecf93c173bb70c3487eb25d2eafeff3c9c160001b620004a460201b60201c565b6200026b7f7d73b0b6420905f552ca21fd635ab77ae49a5cf78a83cf9dfe6b854b0b3ac07560001b620004a460201b60201c565b33905090565b620002a57ffcc0f4bd4bc84ed84b901f94fa406014949ccd53c8a4600df1eac93dbe47f12860001b620001ca60201b60201c565b620002d97fafbb718afee8c2b711427f21d4a125788e6250d8b12e84f068a79856365a792360001b620001ca60201b60201c565b6200030d7ff3d69305a2341bd3ddd5dfb01ad869701ef1b64728bd9955110cde26a6dfa5e060001b620001ca60201b60201c565b60008060009054906101000a900473ffffffffffffffffffffffffffffffffffffffff169050620003677fb2a91f4e9f0f7485ce65f4de97dabbb9ddf7fe2f9e00bd7aae5e46dccd4e1bf060001b620001ca60201b60201c565b6200039b7faf9dc38adab933ecf9fbfc549c4c384de51d148f898c60a09b36ba711398d67060001b620001ca60201b60201c565b816000806101000a81548173ffffffffffffffffffffffffffffffffffffffff021916908373ffffffffffffffffffffffffffffffffffffffff1602179055506200040f7ffe07a5c6dcc617e5b6d55105ff63f1af28274c37413648b172af03a7ed4013be60001b620001ca60201b60201c565b620004437fb79e3a7ed10491d3054e300bf27def7b12fbd81602d54b85b7732f65b87d38aa60001b620001ca60201b60201c565b8173ffffffffffffffffffffffffffffffffffffffff168173ffffffffffffffffffffffffffffffffffffffff167f8be0079c531659141344cd1fd0a4f28419497f9722a3daafe3b4186f6b6457e060405160405180910390a35050565b50565b50565b600080fd5b600073ffffffffffffffffffffffffffffffffffffffff82169050919050565b6000620004d982620004ac565b9050919050565b6000620004ed82620004cc565b9050919050565b620004ff81620004e0565b81146200050b57600080fd5b50565b6000815190506200051f81620004f4565b92915050565b6000602082840312156200053e576200053d620004a7565b5b60006200054e848285016200050e565b91505092915050565b608051613e546200058860003960008181610a630152818161159701528181611e5f0152612aab0152613e546000f3fe608060405234801561001057600080fd5b50600436106100ea5760003560e01c80637b0472f01161008c578063e3daba7111610066578063e3daba711461025f578063e51869d81461027d578063f2fde38b14610287578063f301af42146102a3576100ea565b80637b0472f0146101f55780638da5cb5b14610211578063d232375b1461022f576100ea565b8063379607f5116100c8578063379607f51461017157806342e92d1c1461018d5780635b5ebd03146101bd578063654e51e7146101d9576100ea565b806316de2269146100ef5780631cfff51b14610123578063278ff32914610141575b600080fd5b610109600480360381019061010491906135aa565b6102d3565b60405161011a959493929190613614565b60405180910390f35b61012b610323565b6040516101389190613667565b60405180910390f35b61015b60048036038101906101569190613682565b610336565b60405161016891906136af565b60405180910390f35b61018b60048036038101906101869190613682565b61035a565b005b6101a760048036038101906101a291906136ca565b610df7565b6040516101b491906136af565b60405180910390f35b6101d760048036038101906101d291906135aa565b610e15565b005b6101f360048036038101906101ee91906136f7565b611917565b005b61020f600480360381019061020a91906136f7565b611af0565b005b6102196129e5565b6040516102269190613746565b60405180910390f35b610249600480360381019061024491906136ca565b612a91565b60405161025691906136af565b60405180910390f35b610267612aa9565b60405161027491906137c0565b60405180910390f35b610285612acd565b005b6102a1600480360381019061029c91906136ca565b612d63565b005b6102bd60048036038101906102b89190613682565b612eab565b6040516102ca91906136af565b60405180910390f35b6003602052816000526040600020602052806000526040600020600091509150508060000154908060010154908060020154908060030154908060040160009054906101000a900460ff16905085565b600660009054906101000a900460ff1681565b6001818154811061034657600080fd5b906000526020600020016000915090505481565b6103867f7777a3b77e2df8b6cab1fea007497440240084bf774c6be20468e3163b818c5060001b612ec3565b6103b27f134fe1bbb240bdd55a12057a8672ccdd934373510d25adba7ecb5c7dfe1bf7f660001b612ec3565b6103de7f88f0f73c0117f61a7a9fea73d250ea2bfebce5630e3d35d9960fdd7dcb2e92c760001b612ec3565b61040a7fd1d1fbdd751f9316054e6c2f7ff2cd3e1dc095e54a471a45169fb50167133d3560001b612ec3565b60036000610416612ec6565b73ffffffffffffffffffffffffffffffffffffffff1673ffffffffffffffffffffffffffffffffffffffff1681526020019081526020016000206000828152602001908152602001600020600201544210156104a7576040517f08c379a000000000000000000000000000000000000000000000000000000000815260040161049e90613838565b60405180910390fd5b6104d37f8c96537a95a02a32941eb66c43f13f265a38a7bfbda2068da9efc92cbda6a3bb60001b612ec3565b6104ff7f4adbfab335776ff406ff6a39cfeac26533a9c179bd7189a066298e84a71b949a60001b612ec3565b61052b7f98382b9fcb2b53340db27915809eddd758c1bf6ed642895bf8aa64dcba8a8c5f60001b612ec3565b6105577fe7d20b5c0f7a92e07dcb8ab3a8bb2250a01bc8b2b0ec68a32b2aa4827eba4dde60001b612ec3565b60036000610563612ec6565b73ffffffffffffffffffffffffffffffffffffffff1673ffffffffffffffffffffffffffffffffffffffff168152602001908152602001600020600082815260200190815260200160002060040160009054906101000a900460ff16156105ff576040517f08c379a00000000000000000000000000000000000000000000000000000000081526004016105f6906138a4565b60405180910390fd5b61062b7f06e05667f741d6b85e67c04bd6b501f1946f3bd201f7c1ce2655e11a1a0005a960001b612ec3565b6106577f6116f8dde963d3987c6a7127292288d2dbd42a9313748b2605c028ff08e96d4f60001b612ec3565b6106837f85b61afc470adce3c5ba985bac0f249e7ad2eaa1dd9bb1b72482b9e2f6417c6260001b612ec3565b600160036000610691612ec6565b73ffffffffffffffffffffffffffffffffffffffff1673ffffffffffffffffffffffffffffffffffffffff168152602001908152602001600020600083815260200190815260200160002060040160006101000a81548160ff0219169083151502179055506107227f49de18773fb0d2efad421d6c60c859bf3a24971a8e8dbb75a0592d29a59bde4d60001b612ec3565b61074e7ff20534cbcca2b978f8afdb867f2191f92660f4421e8fee18921770517736beab60001b612ec3565b6003600061075a612ec6565b73ffffffffffffffffffffffffffffffffffffffff1673ffffffffffffffffffffffffffffffffffffffff168152602001908152602001600020600082815260200190815260200160002060000154600560006107b5612ec6565b73ffffffffffffffffffffffffffffffffffffffff1673ffffffffffffffffffffffffffffffffffffffff16815260200190815260200160002060008282546107fe91906138f3565b925050819055506108317fb76ff54c254a47751ec18b695121e790dc903f0175d5e6f01326a6d69b3a2af360001b612ec3565b61085d7f45863193e7cf1ff4811e9372f1bf376100ccd2eceb65df69e4a22726d101050560001b612ec3565b60006109276003600061086e612ec6565b73ffffffffffffffffffffffffffffffffffffffff1673ffffffffffffffffffffffffffffffffffffffff168152602001908152602001600020600084815260200190815260200160002060010154600360006108c9612ec6565b73ffffffffffffffffffffffffffffffffffffffff1673ffffffffffffffffffffffffffffffffffffffff16815260200190815260200160002060008581526020019081526020016000206002015461092291906138f3565b612f52565b60036000610933612ec6565b73ffffffffffffffffffffffffffffffffffffffff1673ffffffffffffffffffffffffffffffffffffffff1681526020019081526020016000206000848152602001908152602001600020600301546109f060036000610991612ec6565b73ffffffffffffffffffffffffffffffffffffffff1673ffffffffffffffffffffffffffffffffffffffff168152602001908152602001600020600086815260200190815260200160002060020154426109eb91906138f3565b612f52565b6109fa9190613927565b610a049190613998565b9050610a327f162060996858bb1a93287ee8ca270e34a95e48f4da153dc27df1b4ccf86c5bad60001b612ec3565b610a5e7f14ff3127fe2beb9891faa927b8b93042d1dc21bdc84fd69f458cfe095c8d5f6260001b612ec3565b6000807f000000000000000000000000000000000000000000000000000000000000000073ffffffffffffffffffffffffffffffffffffffff16610aa0612ec6565b60036000610aac612ec6565b73ffffffffffffffffffffffffffffffffffffffff1673ffffffffffffffffffffffffffffffffffffffff1681526020019081526020016000206000878152602001908152602001600020600301548560036000610b08612ec6565b73ffffffffffffffffffffffffffffffffffffffff1673ffffffffffffffffffffffffffffffffffffffff168152602001908152602001600020600089815260200190815260200160002060000154610b6191906139c9565b610b6b91906139c9565b604051602401610b7c9291906139fd565b6040516020818303038152906040527fa9059cbb000000000000000000000000000000000000000000000000000000007bffffffffffffffffffffffffffffffffffffffffffffffffffffffff19166020820180517bffffffffffffffffffffffffffffffffffffffffffffffffffffffff8381831617835250505050604051610c069190613a97565b6000604051808303816000865af19150503d8060008114610c43576040519150601f19603f3d011682016040523d82523d6000602084013e610c48565b606091505b5091509150610c797f5d7f13d6f72797bdac070062d211a0cf05d179f1529dab04d1fb8f622b8df1a360001b612ec3565b610ca57fa7abbc39f299275b2730d05f1fd251e21817d086b1f29f50e36614af5981cb0760001b612ec3565b610cd17f94cc764d0d7917a85536de02202ddb6f94697a37f2582d53dcdaf2c0585c293860001b612ec3565b818015610cee575080806020019051810190610ced9190613ada565b5b610d2d576040517f08c379a0000000000000000000000000000000000000000000000000000000008152600401610d2490613b53565b60405180910390fd5b610d597f8b14e20f9a8cd1fa0f01b7acf49505c614421f404b5f7d46e0503e3e6f5a35bc60001b612ec3565b610d857f424969d53154b63e9df32912db9d0355cef0255ab82de57f6eb51b62f0fe8a9260001b612ec3565b610db17f96ab3c544e2a0d32889b1199ffe6b544ee8d0911efa14719e3bf51e26a5bcec760001b612ec3565b7f190d7c555f6ea3d9f358fe9f431c2c57019f9635fa98c775bbceba51fd933c3484610ddb612ec6565b604051610de9929190613b73565b60405180910390a150505050565b60046020528060005260406000206000915090508060000154905081565b610e417fd11aef972ff61e31207795e265099339a310a5778ffca2c41a8df56e5880ad7c60001b612fee565b610e6d7f1682b3c674a38d9f35a40b73cb93ea495e918b633b3a922034a88cd4bfd885bc60001b612fee565b610e997f6b8b54c969186b9bdf0bd915da37acda0569ed5f0c36a827679456dce2ec97d960001b612fee565b610ea1612ff1565b610ecd7f33e19bee8b95935cb32767c31d4aae6ec276c0e829a41a328875ae66a9bb771d60001b612fee565b610ef97f319a21c8185b95e05f749f7f1ea32d38fdda38911ff4fd6f91bf09120039b65760001b612ec3565b610f257f2d235125171a790c710c18c3823ff4c696cc3371c74c8f95bacfae4632cebccb60001b612ec3565b610f517f7a03d26e9092c1bf9f434e140339375924768260a5d15b9559e43b86c624fa2760001b612ec3565b610f7d7f950fd064a37c05d20ae9ab11b64a763f50e0f6f670ddfb9a9dd7a0bcd0349bc160001b612ec3565b600360008373ffffffffffffffffffffffffffffffffffffffff1673ffffffffffffffffffffffffffffffffffffffff168152602001908152602001600020600082815260200190815260200160002060020154421015611013576040517f08c379a000000000000000000000000000000000000000000000000000000000815260040161100a90613838565b60405180910390fd5b61103f7fba5d3739b1a3ab19e04610f86002c51b33e440af6dfe143492d1595971c2ce8860001b612ec3565b61106b7f2c31b7a8d897c9b95d82616d3692195bd77afe2f9824218bac1f2455242ddb9560001b612ec3565b6110977f392bff2fd032cb2572e11f5279bf39ce57a48d5e67b3afaad96506dd25d6f8fe60001b612ec3565b6110c37f92c1e89bb74f72a957f588e3cd77369ec3e6386b7e4ec35a9dd8305c9be0575960001b612ec3565b600360008373ffffffffffffffffffffffffffffffffffffffff1673ffffffffffffffffffffffffffffffffffffffff168152602001908152602001600020600082815260200190815260200160002060040160009054906101000a900460ff1615611164576040517f08c379a000000000000000000000000000000000000000000000000000000000815260040161115b906138a4565b60405180910390fd5b6111907fa702814976f7399888b991bdc5d0dfc52627adabd7ac8406a3059daa0b53306c60001b612ec3565b6111bc7ffa19690d563d47fe99888dcabc100ef35b65b47ab1c32d286cc07423001194d860001b612ec3565b6111e87fd53cd4b9d7c360ba5ed60f73f737218d13ccb581468faf34cc89c5cfdfd6c98d60001b612ec3565b6001600360008473ffffffffffffffffffffffffffffffffffffffff1673ffffffffffffffffffffffffffffffffffffffff168152602001908152602001600020600083815260200190815260200160002060040160006101000a81548160ff0219169083151502179055506112807f19cf2c3d6201d79f15454fdd217307957a91f771a1988b75f1e607853ce92ef560001b612ec3565b6112ac7fabe5a41e988c1ce06b503cfda319a1dfc4f934bc0e9f4efd85e54fad31cba48b60001b612ec3565b600360008373ffffffffffffffffffffffffffffffffffffffff1673ffffffffffffffffffffffffffffffffffffffff168152602001908152602001600020600082815260200190815260200160002060000154600560008473ffffffffffffffffffffffffffffffffffffffff1673ffffffffffffffffffffffffffffffffffffffff168152602001908152602001600020600082825461134e91906138f3565b925050819055506113817f59539790c65d730aeacbd028f991332c4e34e96ce373470a94379bbcc96dc91660001b612ec3565b6113ad7f6a4b9570b8650cf994d13e1189b1c2d41bb79530c8fe3dcc9fba837dc0c5638560001b612ec3565b6000611469600360008573ffffffffffffffffffffffffffffffffffffffff1673ffffffffffffffffffffffffffffffffffffffff168152602001908152602001600020600084815260200190815260200160002060010154600360008673ffffffffffffffffffffffffffffffffffffffff1673ffffffffffffffffffffffffffffffffffffffff16815260200190815260200160002060008581526020019081526020016000206002015461146491906138f3565b612f52565b600360008573ffffffffffffffffffffffffffffffffffffffff1673ffffffffffffffffffffffffffffffffffffffff168152602001908152602001600020600084815260200190815260200160002060030154611524600360008773ffffffffffffffffffffffffffffffffffffffff1673ffffffffffffffffffffffffffffffffffffffff1681526020019081526020016000206000868152602001908152602001600020600201544261151f91906138f3565b612f52565b61152e9190613927565b6115389190613998565b90506115667f7e4dc7236f7fcdcf2b12052d00200adcdb041c0074d059a22aa351be8989886560001b612ec3565b6115927f9ce92c3672c6b7d0dfd4527ac1e83a09a2e298bcb5a76e6bbc5cf86703b83d3060001b612ec3565b6000807f000000000000000000000000000000000000000000000000000000000000000073ffffffffffffffffffffffffffffffffffffffff166115d4612ec6565b600360008873ffffffffffffffffffffffffffffffffffffffff1673ffffffffffffffffffffffffffffffffffffffff16815260200190815260200160002060008781526020019081526020016000206003015485600360008a73ffffffffffffffffffffffffffffffffffffffff1673ffffffffffffffffffffffffffffffffffffffff16815260200190815260200160002060008981526020019081526020016000206000015461168791906139c9565b61169191906139c9565b6040516024016116a29291906139fd565b6040516020818303038152906040527fa9059cbb000000000000000000000000000000000000000000000000000000007bffffffffffffffffffffffffffffffffffffffffffffffffffffffff19166020820180517bffffffffffffffffffffffffffffffffffffffffffffffffffffffff838183161783525050505060405161172c9190613a97565b6000604051808303816000865af19150503d8060008114611769576040519150601f19603f3d011682016040523d82523d6000602084013e61176e565b606091505b509150915061179f7f1ba03e726fa57cceee7d83816d1d75350076aa97dc1b4d14af370f9d93bf421160001b612ec3565b6117cb7ffb099b4711ae3a7a181edce88edd90e3915865a41826a376c984e2fd79d018da60001b612ec3565b6117f77f6b357b9d225e8e4b68f06dd39da76d5d39ac8f426d0733d8228be11bb63c246f60001b612ec3565b8180156118145750808060200190518101906118139190613ada565b5b611853576040517f08c379a000000000000000000000000000000000000000000000000000000000815260040161184a90613b53565b60405180910390fd5b61187f7fe82aea03706cfe41f0a92dd5ca7278adb1fe54c2639761c16c73a4ef11cea90a60001b612ec3565b6118ab7f775b78a88fc780d6f325565c9ab303d13cc9025e0d4cc6e754dba8a6a79b40f960001b612ec3565b6118d77fee23766df551e8a0f672adb239bafe9d9b4abbcb984b23661640d5aa0c2426eb60001b612ec3565b7f190d7c555f6ea3d9f358fe9f431c2c57019f9635fa98c775bbceba51fd933c348486604051611908929190613b73565b60405180910390a15050505050565b6119437fd11aef972ff61e31207795e265099339a310a5778ffca2c41a8df56e5880ad7c60001b612fee565b61196f7f1682b3c674a38d9f35a40b73cb93ea495e918b633b3a922034a88cd4bfd885bc60001b612fee565b61199b7f6b8b54c969186b9bdf0bd915da37acda0569ed5f0c36a827679456dce2ec97d960001b612fee565b6119a3612ff1565b6119cf7f33e19bee8b95935cb32767c31d4aae6ec276c0e829a41a328875ae66a9bb771d60001b612fee565b6119fb7f16b90ddd317f996aab0ebcc83ad88a50ba24573fb19a02f077a0545813d2534760001b612ec3565b611a277fbee19d72ffedd7bde0e0a9f658800d55b95da93bdb3db9be34506f308ab5129760001b612ec3565b611a537f1ba9d5f53543e32ef0ac86d62c02c773a4c4f61c050972131407504722ac383060001b612ec3565b816002600083815260200190815260200160002081905550611a977facea51c99cc0d197e93db68f3334bc7fab510e19f285ef12b9b4fef3ed538c7860001b612ec3565b611ac37f48ddccbd21fae3cef6a3a96cc1e87d07d3673844ed1203330dd43d75366a0f1660001b612ec3565b60018190806001815401808255809150506001900390600052602060002001600090919091909150555050565b611b1c7f148e800b52d48fb488b5f3f9866f5f2c075c6962a4f1463dc58ea503c1a8258260001b612ec3565b611b487fc57f92f790eb7bd7797505924da01a166b145be6e7a6779051f2a718cbf0f86660001b612ec3565b611b747f2f787e2f2e22607623c76aacf684bbb2641929154e88d49fd5ffa143c97a763460001b612ec3565b611ba07f8ac4cd3a146a4c19fed7dfb0e5170f4d6ed8a062a20bbbbd3638bf1537ecb66560001b612ec3565b600660009054906101000a900460ff16611bef576040517f08c379a0000000000000000000000000000000000000000000000000000000008152600401611be690613be8565b60405180910390fd5b611c1b7f34be684a67b334760703b0fc17134368c79fde320988ecfa3bacc03f31110fd460001b612ec3565b611c477f2852c59765a289cb363b9d4a90fe575932d5cac437b3a724e50cc70b1bf3aae760001b612ec3565b611c737ff715e809d896c1d1ced050de37cdc7cf57668fe570b7d4ce23e546e16a1a069960001b612ec3565b611c9f7fb403dc76f4ff80be4dd62a57f5430a8574bd658c91fe90ffddda621d3303ccdb60001b612ec3565b60008203611ce2576040517f08c379a0000000000000000000000000000000000000000000000000000000008152600401611cd990613c54565b60405180910390fd5b611d0e7f2ddb9fecfec88d34d3d2a9d574910c46a7210481cbd7ce4dca110f4f26dc645b60001b612ec3565b611d3a7f03d50d45d7f1d5e7537edfaf06db82e1d3163f54a1b5adb04f9e650a925f966460001b612ec3565b611d667f02d40c613b67e4f6749af9f97df25e228da0b34245e951d3f33f8f4944a991ab60001b612ec3565b611d927ffc4e3682c25fb79ef0c1fdd786885d6b5283947a41d41166c558f6a8c766319960001b612ec3565b601e811015611dd6576040517f08c379a0000000000000000000000000000000000000000000000000000000008152600401611dcd90613cc0565b60405180910390fd5b611e027fbebfeaab6928835549e65f20b951803147e4f7a8f4d906fa97749b69e42bd8a460001b612ec3565b611e2e7f36b9b15c4c111c275acdb79c9152fdc1389389d70a41ee413dd8ddc43a8ed56f60001b612ec3565b611e5a7f284558de88f8b84ed67da7bdcd9a4f0a38f52708cde78e9ed657a1896dfca81160001b612ec3565b6000807f000000000000000000000000000000000000000000000000000000000000000073ffffffffffffffffffffffffffffffffffffffff16611e9c612ec6565b3086604051602401611eb093929190613ce0565b6040516020818303038152906040527f23b872dd000000000000000000000000000000000000000000000000000000007bffffffffffffffffffffffffffffffffffffffffffffffffffffffff19166020820180517bffffffffffffffffffffffffffffffffffffffffffffffffffffffff8381831617835250505050604051611f3a9190613a97565b6000604051808303816000865af19150503d8060008114611f77576040519150601f19603f3d011682016040523d82523d6000602084013e611f7c565b606091505b5091509150611fad7f93bf2f16688849b2773eb03f1449f767d9246455852286374afeabb76aeb9c5960001b612ec3565b611fd97f6e3b427f84431013144465967be39b78f31ca32046e052c6d9c8b1afc0e8f83460001b612ec3565b6120057f45a20ba5be5250834f699cf54c64978d5c68d45d4cba076c5dbecc0a607d95b360001b612ec3565b8180156120225750808060200190518101906120219190613ada565b5b612061576040517f08c379a000000000000000000000000000000000000000000000000000000000815260040161205890613d63565b60405180910390fd5b61208d7fad8bd9a1a6be92dd157c985142b76d5c35f6dea0fc6e290fabb5b8787ac9c35460001b612ec3565b6120b97f0aa804a48f81d884afbbdb0f69c89fcef116123b0e7e824c9ff286f3387fce4860001b612ec3565b6120e57f095cebe40136a472fd71ab890b5e68d01968c981a0b8d8d905d8b948fb09ac6360001b612ec3565b612133600460006120f4612ec6565b73ffffffffffffffffffffffffffffffffffffffff1673ffffffffffffffffffffffffffffffffffffffff16815260200190815260200160002061314b565b61215f7ff598b270b85d3d1747678b678375f7cc5063997e52267ad7f06d3c8a5bd14a8560001b612ec3565b61218b7f19dbe775cc23670ee469032218b252f051983f5032471bc739adc15666cc294260001b612ec3565b8360036000612198612ec6565b73ffffffffffffffffffffffffffffffffffffffff1673ffffffffffffffffffffffffffffffffffffffff1681526020019081526020016000206000612222600460006121e3612ec6565b73ffffffffffffffffffffffffffffffffffffffff1673ffffffffffffffffffffffffffffffffffffffff1681526020019081526020016000206131e5565b8152602001908152602001600020600001819055506122637f0cd482595385ae549c687799eed94c1bf88b1d0f34e777bbdf7ea5987603864660001b612ec3565b61228f7f3f593f07de50fd36e3d520e6a188c1ef49ef6bcfe6a0e036284a54a661bc50f760001b612ec3565b426003600061229c612ec6565b73ffffffffffffffffffffffffffffffffffffffff1673ffffffffffffffffffffffffffffffffffffffff1681526020019081526020016000206000612326600460006122e7612ec6565b73ffffffffffffffffffffffffffffffffffffffff1673ffffffffffffffffffffffffffffffffffffffff1681526020019081526020016000206131e5565b8152602001908152602001600020600101819055506123677f891d2ebb585cfd33fe04d56bc0a40b3dea1db9cdabe2cd8b6adb70dea9398a4760001b612ec3565b6123937f66eda13ca15553ad4481d479b797131ffe6771ed5721da7ef414f74633c32fa260001b612ec3565b61239c83613277565b426123a791906139c9565b600360006123b3612ec6565b73ffffffffffffffffffffffffffffffffffffffff1673ffffffffffffffffffffffffffffffffffffffff168152602001908152602001600020600061243d600460006123fe612ec6565b73ffffffffffffffffffffffffffffffffffffffff1673ffffffffffffffffffffffffffffffffffffffff1681526020019081526020016000206131e5565b81526020019081526020016000206002018190555061247e7fa2ea54832db0267e7cec7d08662ec670909adf743318e5cb1eccf60f6579321360001b612ec3565b6124aa7f1b039902a9d806fe3ba7d4e64f2d44058e5b77b9701e7ba210a7b9870b995d4660001b612ec3565b83600560006124b7612ec6565b73ffffffffffffffffffffffffffffffffffffffff1673ffffffffffffffffffffffffffffffffffffffff168152602001908152602001600020600082825461250091906139c9565b925050819055506125337fc89f31491f4185c34cfc8a3bdcb45326f0e2cc066b67a18e071e025ce51e179560001b612ec3565b61255f7f894f4acc5aa8a3cb346734fff768b09f392364dcf3499ae8ac2ea974ee2021d560001b612ec3565b600060018054905090506125957fbc86490d8ecf7844c4433a97816ed02b43e0be04e326a9d3a4a752b109943d9260001b612ec3565b6125c17f3cec23381d73af06b14c45680d71fee5a2c65a381eec8bcd5c931b5d2778e78f60001b612ec3565b60006125ef7f0b3b29ff47b9b8314d07e7563852a80252a0e5ba4635a1e2f5a59662baf2cabb60001b612ec3565b61261b7f12a8cb9fcf70d45a1c5806517c34f4e8f377e671cd88dc741f1a2a569d13530860001b612ec3565b60005b828110156127b1576126527fe1f7875875906f3cce51cd5d0a1f26fd67375d9be4ec8aa44441b83dd9473f8360001b612ec3565b61267e7f7f658e549b8d29b4788d34f3e71579611a4156070e46071cada572a9a2dd9d2d60001b612ec3565b6001818154811061269257612691613d83565b5b9060005260206000200154861061274d576126cf7f50b3a9a6f2e4456645f597eea7eaf4a2867b865af5af4af1d18c541fda95799260001b612ec3565b6126fb7f55af1163940f58c6aef38504dac504a6432c5d9bdf7ffe1ee98489fd834a680c60001b612ec3565b6127277ffaa7c3fb89169e0af8ed22e3869a91697a57b880c4e4a40b26d2187f08e4e4ca60001b612ec3565b6001818154811061273b5761273a613d83565b5b9060005260206000200154915061277a565b6127797fef3ea886101a99d0ebc68b84e4d9b4d010698f6c8b09f77154fdb3d32c8bd23c60001b612ec3565b5b6127a67ffb3e384cd2e389c92ed5311af826f944c1ab00b793a3c0f8036fff344f8e63c860001b612ec3565b80600101905061261e565b506127de7fec15fcb33090b320465e01ab0bdede87f4b395acf1c4fcb4b7dee0221dc3302560001b612ec3565b61280a7fc2e0c7b14ab22e8b8db20831dc35a926456f42c334726ef177f523526135ed4660001b612ec3565b61016d85600260008481526020019081526020016000205460648961282f9190613998565b6128399190613927565b6128439190613927565b61284d9190613998565b60036000612859612ec6565b73ffffffffffffffffffffffffffffffffffffffff1673ffffffffffffffffffffffffffffffffffffffff16815260200190815260200160002060006128e3600460006128a4612ec6565b73ffffffffffffffffffffffffffffffffffffffff1673ffffffffffffffffffffffffffffffffffffffff1681526020019081526020016000206131e5565b8152602001908152602001600020600301819055506129247f322814fc9630200367d1881e6ddc2966811addd180f469bcd2ea1925798b982760001b612ec3565b6129507f6ff05ce0e371396b58ea2c3b50c19f4649fb79ac70bcc9612fdf77ec820d1e6d60001b612ec3565b7f6e553f653991036c188afcef45e14f9ecb45269ff9c675358bbb3a2eeb78e03b6129bf60046000612980612ec6565b73ffffffffffffffffffffffffffffffffffffffff1673ffffffffffffffffffffffffffffffffffffffff1681526020019081526020016000206131e5565b6129c7612ec6565b6040516129d5929190613b73565b60405180910390a1505050505050565b6000612a137f5deca8ade82ca7f40065784655a1dc1552a1e59f60e2177831cdbc067293057160001b612fee565b612a3f7f8d4ebf3fe620bc7bcaff62acfd81810ee25199524c478c4d4c6576171aa97ad660001b612fee565b612a6b7f63a4589a7d16471d99b3771e4e93d177cca9ba788cf1d4325a66b4c914a56a1960001b612fee565b60008054906101000a900473ffffffffffffffffffffffffffffffffffffffff16905090565b60056020528060005260406000206000915090505481565b7f000000000000000000000000000000000000000000000000000000000000000081565b612af97fd11aef972ff61e31207795e265099339a310a5778ffca2c41a8df56e5880ad7c60001b612fee565b612b257f1682b3c674a38d9f35a40b73cb93ea495e918b633b3a922034a88cd4bfd885bc60001b612fee565b612b517f6b8b54c969186b9bdf0bd915da37acda0569ed5f0c36a827679456dce2ec97d960001b612fee565b612b59612ff1565b612b857f33e19bee8b95935cb32767c31d4aae6ec276c0e829a41a328875ae66a9bb771d60001b612fee565b612bb17f82fc1cf46994d105761147c7a6ec8ddefcf98cbd646863f83638864ec6ee000a60001b612ec3565b612bdd7f8e572a2cbc1a888aa213d3b02e6677540e865e4c50af40f255e747e3590bd4e860001b612ec3565b612c097f6d12f5ae26bbc302056566cac8088bcf7e3d0fc183145ab4ee746b66c340600260001b612ec3565b600660009054906101000a900460ff16612cc157612c497f14c1e30a5d4ae92b646b83c87100e586d7e0e231039561d7e57eaa3dde66db5760001b612ec3565b612c757f5d6efa0389c42c6648ced4936694de1da4fc57b9df07c6a6492d32bfd8c21eaf60001b612ec3565b612ca17f3372e149e2193a13295faf63485497814c651e1c4849f4e896b43ff7553eefbb60001b612ec3565b6001600660006101000a81548160ff021916908315150217905550612d61565b612ced7f4462a94b67c55c390080d9249d1fdb7762508feffb3f6622fa07b01b453ca77560001b612ec3565b612d197f6025522f30269d7f1eefa1a3aad5d54e33984892b826dcff9f076c5e0c23205b60001b612ec3565b612d457f14f9f3e42c684e2b64727ca2b2f216e703c7760e3dcb87a6a81c777add9dbd4660001b612ec3565b6000600660006101000a81548160ff0219169083151502179055505b565b612d8f7fd11aef972ff61e31207795e265099339a310a5778ffca2c41a8df56e5880ad7c60001b612fee565b612dbb7f1682b3c674a38d9f35a40b73cb93ea495e918b633b3a922034a88cd4bfd885bc60001b612fee565b612de77f6b8b54c969186b9bdf0bd915da37acda0569ed5f0c36a827679456dce2ec97d960001b612fee565b612def612ff1565b612e1b7f33e19bee8b95935cb32767c31d4aae6ec276c0e829a41a328875ae66a9bb771d60001b612fee565b612e477f1aaaa3ba31a3232768ef6704cdd7e07b59faed0d3a03f7e39ef3f030fbc8c75660001b612fee565b612e737f190a83ff0862b79e4317a701a7aa33c0ad16fd69c47aa3072e9ab4252bba5e1c60001b612fee565b612e9f7f4a5091f3ebc2eeebe5c06ad7ebd3fd40840b26248bb93a61f9924b0c8802632660001b612fee565b612ea881613313565b50565b60026020528060005260406000206000915090505481565b50565b6000612ef47f6ef73a9be3d0833f33b62e6f2c5284fcaa8715d29587a1e2e8e99097c289922160001b61350b565b612f207f05089e3f72f0c307dc8905df6d1e3ecf93c173bb70c3487eb25d2eafeff3c9c160001b61350b565b612f4c7f7d73b0b6420905f552ca21fd635ab77ae49a5cf78a83cf9dfe6b854b0b3ac07560001b61350b565b33905090565b6000612f807f9ad2cbfb64aade6cce8719f612b5c937ceb6f3374099c97f70bee41677804fa060001b612ec3565b612fac7f3a08ff9380bdfa72408b91f1fdf4c28a9fc642e9a0cdf3d88ee3ee6cb730b9e960001b612ec3565b612fd87f85ea84b382e22924ddc58be10d449142382010b1abac94f524f0f6b340e45c4e60001b612ec3565b6201518082612fe79190613998565b9050919050565b50565b61301d7f6cf03fe5330df3e4f5711af8ae196e3c11b867a978ebe4db97a2af275aceae0860001b612fee565b6130497f242de14bd5dc1bf4bcfd142117479b4b9d42f836e131d2222b0a059f77b3a39c60001b612fee565b6130757fd4495a36015efb15a8bfcd92f78762598ba272e2403986a398ed72161fac294d60001b612fee565b6130a17fd4f9d5ddc15882984365383e3bd72327df7e25371a76bc70b140725173572bd060001b612fee565b6130a9612ec6565b73ffffffffffffffffffffffffffffffffffffffff166130c76129e5565b73ffffffffffffffffffffffffffffffffffffffff161461311d576040517f08c379a000000000000000000000000000000000000000000000000000000000815260040161311490613dfe565b60405180910390fd5b6131497fcf508d5c720fca70f3585ac5af3e4b7876f5af844c61c128a15dbd6121a3a49b60001b612fee565b565b6131777f03c55bbb85b8539431acbca0e57997f8747e85e9297c1308f330930a87e09cca60001b61350e565b6131a37f893b8d595d1fd54a20f361eefff3c8f6ba27e53244d621bc3b41f66b34ed632760001b61350e565b6131cf7fb6a87f36a6ea96a96dfc7d4edefe93af9c9090678cf0b310fc04bff8f26e278a60001b61350e565b6001816000016000828254019250508190555050565b60006132137f66890c2355cd29baf7cc22a5d89409104f9deac0469f72f293ea7aaaa7b3b36860001b61350e565b61323f7fc1372a30ae7a03dd37918e2eec9ef4b392907c5f139c8e08aed8d791a701742e60001b61350e565b61326b7fdeff96f8819109cfb827c5432e7ef50940eba3a82249087222f2e0c3157d61bb60001b61350e565b81600001549050919050565b60006132a57f46da192d5c1c5e4c8676ee0c88fdeadaf85b8d5109ca1bdd3e4270663bb5a16c60001b612ec3565b6132d17f35ca5169d74e45bccaea8fd11393353f09497857c26269c318cf0e66ea0cbd7660001b612ec3565b6132fd7fac5b0d5ce470e00ccd304cd22d1efaf8966dc8322e1e2c0018bc5d160b23f26c60001b612ec3565b620151808261330c9190613927565b9050919050565b61333f7ffcc0f4bd4bc84ed84b901f94fa406014949ccd53c8a4600df1eac93dbe47f12860001b612fee565b61336b7fafbb718afee8c2b711427f21d4a125788e6250d8b12e84f068a79856365a792360001b612fee565b6133977ff3d69305a2341bd3ddd5dfb01ad869701ef1b64728bd9955110cde26a6dfa5e060001b612fee565b60008060009054906101000a900473ffffffffffffffffffffffffffffffffffffffff1690506133e97fb2a91f4e9f0f7485ce65f4de97dabbb9ddf7fe2f9e00bd7aae5e46dccd4e1bf060001b612fee565b6134157faf9dc38adab933ecf9fbfc549c4c384de51d148f898c60a09b36ba711398d67060001b612fee565b816000806101000a81548173ffffffffffffffffffffffffffffffffffffffff021916908373ffffffffffffffffffffffffffffffffffffffff1602179055506134817ffe07a5c6dcc617e5b6d55105ff63f1af28274c37413648b172af03a7ed4013be60001b612fee565b6134ad7fb79e3a7ed10491d3054e300bf27def7b12fbd81602d54b85b7732f65b87d38aa60001b612fee565b8173ffffffffffffffffffffffffffffffffffffffff168173ffffffffffffffffffffffffffffffffffffffff167f8be0079c531659141344cd1fd0a4f28419497f9722a3daafe3b4186f6b6457e060405160405180910390a35050565b50565b50565b600080fd5b600073ffffffffffffffffffffffffffffffffffffffff82169050919050565b600061354182613516565b9050919050565b61355181613536565b811461355c57600080fd5b50565b60008135905061356e81613548565b92915050565b6000819050919050565b61358781613574565b811461359257600080fd5b50565b6000813590506135a48161357e565b92915050565b600080604083850312156135c1576135c0613511565b5b60006135cf8582860161355f565b92505060206135e085828601613595565b9150509250929050565b6135f381613574565b82525050565b60008115159050919050565b61360e816135f9565b82525050565b600060a08201905061362960008301886135ea565b61363660208301876135ea565b61364360408301866135ea565b61365060608301856135ea565b61365d6080830184613605565b9695505050505050565b600060208201905061367c6000830184613605565b92915050565b60006020828403121561369857613697613511565b5b60006136a684828501613595565b91505092915050565b60006020820190506136c460008301846135ea565b92915050565b6000602082840312156136e0576136df613511565b5b60006136ee8482850161355f565b91505092915050565b6000806040838503121561370e5761370d613511565b5b600061371c85828601613595565b925050602061372d85828601613595565b9150509250929050565b61374081613536565b82525050565b600060208201905061375b6000830184613737565b92915050565b6000819050919050565b600061378661378161377c84613516565b613761565b613516565b9050919050565b60006137988261376b565b9050919050565b60006137aa8261378d565b9050919050565b6137ba8161379f565b82525050565b60006020820190506137d560008301846137b1565b92915050565b600082825260208201905092915050565b7f746f6f206561726c790000000000000000000000000000000000000000000000600082015250565b60006138226009836137db565b915061382d826137ec565b602082019050919050565b6000602082019050818103600083015261385181613815565b9050919050565b7f616c726561647920726563656976650000000000000000000000000000000000600082015250565b600061388e600f836137db565b915061389982613858565b602082019050919050565b600060208201905081810360008301526138bd81613881565b9050919050565b7f4e487b7100000000000000000000000000000000000000000000000000000000600052601160045260246000fd5b60006138fe82613574565b915061390983613574565b9250828203905081811115613921576139206138c4565b5b92915050565b600061393282613574565b915061393d83613574565b925082820261394b81613574565b91508282048414831517613962576139616138c4565b5b5092915050565b7f4e487b7100000000000000000000000000000000000000000000000000000000600052601260045260246000fd5b60006139a382613574565b91506139ae83613574565b9250826139be576139bd613969565b5b828204905092915050565b60006139d482613574565b91506139df83613574565b92508282019050808211156139f7576139f66138c4565b5b92915050565b6000604082019050613a126000830185613737565b613a1f60208301846135ea565b9392505050565b600081519050919050565b600081905092915050565b60005b83811015613a5a578082015181840152602081019050613a3f565b60008484015250505050565b6000613a7182613a26565b613a7b8185613a31565b9350613a8b818560208601613a3c565b80840191505092915050565b6000613aa38284613a66565b915081905092915050565b613ab7816135f9565b8114613ac257600080fd5b50565b600081519050613ad481613aae565b92915050565b600060208284031215613af057613aef613511565b5b6000613afe84828501613ac5565b91505092915050565b7f4661696c656420746f2073656e642066756e6473210000000000000000000000600082015250565b6000613b3d6015836137db565b9150613b4882613b07565b602082019050919050565b60006020820190508181036000830152613b6c81613b30565b9050919050565b6000604082019050613b8860008301856135ea565b613b956020830184613737565b9392505050565b7f64697361626c6564000000000000000000000000000000000000000000000000600082015250565b6000613bd26008836137db565b9150613bdd82613b9c565b602082019050919050565b60006020820190508181036000830152613c0181613bc5565b9050919050565b7f57726f6e6720616d6f756e740000000000000000000000000000000000000000600082015250565b6000613c3e600c836137db565b9150613c4982613c08565b602082019050919050565b60006020820190508181036000830152613c6d81613c31565b9050919050565b7f33302064617973206d696e000000000000000000000000000000000000000000600082015250565b6000613caa600b836137db565b9150613cb582613c74565b602082019050919050565b60006020820190508181036000830152613cd981613c9d565b9050919050565b6000606082019050613cf56000830186613737565b613d026020830185613737565b613d0f60408301846135ea565b949350505050565b7f4661696c65642073656e642066756e6473000000000000000000000000000000600082015250565b6000613d4d6011836137db565b9150613d5882613d17565b602082019050919050565b60006020820190508181036000830152613d7c81613d40565b9050919050565b7f4e487b7100000000000000000000000000000000000000000000000000000000600052603260045260246000fd5b7f4f776e61626c653a2063616c6c6572206973206e6f7420746865206f776e6572600082015250565b6000613de86020836137db565b9150613df382613db2565b602082019050919050565b60006020820190508181036000830152613e1781613ddb565b905091905056fea2646970667358221220f43d0edc103dfa63ff39689c83888e96b43ac1710f0fffd85ff6e667536f72c164736f6c63430008110033",
  "linkReferences": {},
  "deployedLinkReferences": {}
}