{
  "_format": "hh-sol-artifact-1",
  "contractName": "TestStakingToken",
  "sourceName": "contracts/TST.sol",
  "abi": [
    {
      "inputs": [],
      "stateMutability": "nonpayable",
      "type": "constructor"
    },
    {
      "anonymous": false,
      "inputs": [
        {
          "indexed": true,
          "internalType": "address",
          "name": "owner",
          "type": "address"
        },
        {
          "indexed": true,
          "internalType": "address",
          "name": "spender",
          "type": "address"
        },
        {
          "indexed": false,
          "internalType": "uint256",
          "name": "value",
          "type": "uint256"
        }
      ],
      "name": "Approval",
      "type": "event"
    },
    {
      "anonymous": false,
      "inputs": [
        {
          "indexed": true,
          "internalType": "address",
          "name": "previousOwner",
          "type": "address"
        },
        {
          "indexed": true,
          "internalType": "address",
          "name": "newOwner",
          "type": "address"
        }
      ],
      "name": "OwnershipTransferred",
      "type": "event"
    },
    {
      "anonymous": false,
      "inputs": [
        {
          "indexed": false,
          "internalType": "address",
          "name": "account",
          "type": "address"
        }
      ],
      "name": "Paused",
      "type": "event"
    },
    {
      "anonymous": false,
      "inputs": [
        {
          "indexed": true,
          "internalType": "address",
          "name": "from",
          "type": "address"
        },
        {
          "indexed": true,
          "internalType": "address",
          "name": "to",
          "type": "address"
        },
        {
          "indexed": false,
          "internalType": "uint256",
          "name": "value",
          "type": "uint256"
        }
      ],
      "name": "Transfer",
      "type": "event"
    },
    {
      "anonymous": false,
      "inputs": [
        {
          "indexed": false,
          "internalType": "address",
          "name": "account",
          "type": "address"
        }
      ],
      "name": "Unpaused",
      "type": "event"
    },
    {
      "inputs": [
        {
          "internalType": "address",
          "name": "owner",
          "type": "address"
        },
        {
          "internalType": "address",
          "name": "spender",
          "type": "address"
        }
      ],
      "name": "allowance",
      "outputs": [
        {
          "internalType": "uint256",
          "name": "",
          "type": "uint256"
        }
      ],
      "stateMutability": "view",
      "type": "function"
    },
    {
      "inputs": [
        {
          "internalType": "address",
          "name": "spender",
          "type": "address"
        },
        {
          "internalType": "uint256",
          "name": "amount",
          "type": "uint256"
        }
      ],
      "name": "approve",
      "outputs": [
        {
          "internalType": "bool",
          "name": "",
          "type": "bool"
        }
      ],
      "stateMutability": "nonpayable",
      "type": "function"
    },
    {
      "inputs": [
        {
          "internalType": "address",
          "name": "account",
          "type": "address"
        }
      ],
      "name": "balanceOf",
      "outputs": [
        {
          "internalType": "uint256",
          "name": "",
          "type": "uint256"
        }
      ],
      "stateMutability": "view",
      "type": "function"
    },
    {
      "inputs": [],
      "name": "decimals",
      "outputs": [
        {
          "internalType": "uint8",
          "name": "",
          "type": "uint8"
        }
      ],
      "stateMutability": "view",
      "type": "function"
    },
    {
      "inputs": [
        {
          "internalType": "address",
          "name": "spender",
          "type": "address"
        },
        {
          "internalType": "uint256",
          "name": "subtractedValue",
          "type": "uint256"
        }
      ],
      "name": "decreaseAllowance",
      "outputs": [
        {
          "internalType": "bool",
          "name": "",
          "type": "bool"
        }
      ],
      "stateMutability": "nonpayable",
      "type": "function"
    },
    {
      "inputs": [
        {
          "internalType": "address",
          "name": "spender",
          "type": "address"
        },
        {
          "internalType": "uint256",
          "name": "addedValue",
          "type": "uint256"
        }
      ],
      "name": "increaseAllowance",
      "outputs": [
        {
          "internalType": "bool",
          "name": "",
          "type": "bool"
        }
      ],
      "stateMutability": "nonpayable",
      "type": "function"
    },
    {
      "inputs": [
        {
          "internalType": "address",
          "name": "to",
          "type": "address"
        },
        {
          "internalType": "uint256",
          "name": "amount",
          "type": "uint256"
        }
      ],
      "name": "mint",
      "outputs": [],
      "stateMutability": "nonpayable",
      "type": "function"
    },
    {
      "inputs": [],
      "name": "name",
      "outputs": [
        {
          "internalType": "string",
          "name": "",
          "type": "string"
        }
      ],
      "stateMutability": "view",
      "type": "function"
    },
    {
      "inputs": [],
      "name": "owner",
      "outputs": [
        {
          "internalType": "address",
          "name": "",
          "type": "address"
        }
      ],
      "stateMutability": "view",
      "type": "function"
    },
    {
      "inputs": [],
      "name": "pause",
      "outputs": [],
      "stateMutability": "nonpayable",
      "type": "function"
    },
    {
      "inputs": [],
      "name": "paused",
      "outputs": [
        {
          "internalType": "bool",
          "name": "",
          "type": "bool"
        }
      ],
      "stateMutability": "view",
      "type": "function"
    },
    {
      "inputs": [],
      "name": "renounceOwnership",
      "outputs": [],
      "stateMutability": "nonpayable",
      "type": "function"
    },
    {
      "inputs": [],
      "name": "symbol",
      "outputs": [
        {
          "internalType": "string",
          "name": "",
          "type": "string"
        }
      ],
      "stateMutability": "view",
      "type": "function"
    },
    {
      "inputs": [],
      "name": "totalSupply",
      "outputs": [
        {
          "internalType": "uint256",
          "name": "",
          "type": "uint256"
        }
      ],
      "stateMutability": "view",
      "type": "function"
    },
    {
      "inputs": [
        {
          "internalType": "address",
          "name": "to",
          "type": "address"
        },
        {
          "internalType": "uint256",
          "name": "amount",
          "type": "uint256"
        }
      ],
      "name": "transfer",
      "outputs": [
        {
          "internalType": "bool",
          "name": "",
          "type": "bool"
        }
      ],
      "stateMutability": "nonpayable",
      "type": "function"
    },
    {
      "inputs": [
        {
          "internalType": "address",
          "name": "from",
          "type": "address"
        },
        {
          "internalType": "address",
          "name": "to",
          "type": "address"
        },
        {
          "internalType": "uint256",
          "name": "amount",
          "type": "uint256"
        }
      ],
      "name": "transferFrom",
      "outputs": [
        {
          "internalType": "bool",
          "name": "",
          "type": "bool"
        }
      ],
      "stateMutability": "nonpayable",
      "type": "function"
    },
    {
      "inputs": [
        {
          "internalType": "address",
          "name": "newOwner",
          "type": "address"
        }
      ],
      "name": "transferOwnership",
      "outputs": [],
      "stateMutability": "nonpayable",
      "type": "function"
    },
    {
      "inputs": [],
      "name": "unpause",
      "outputs": [],
      "stateMutability": "nonpayable",
      "type": "function"
    }
  ],
  "bytecode": "0x60806040523480156200001157600080fd5b506040518060400160405280601081526020017f546573745374616b696e67546f6b656e000000000000000000000000000000008152506040518060400160405280600381526020017f5453540000000000000000000000000000000000000000000000000000000000815250620000b27fff961ba115d19a3d5d080a7f1eb9f6d2c9352c032f7dfe67ce6b62af4c7c6c9a60001b6200035560201b60201c565b620000e67f8bfccb71ba03a0112ecc2bc2a6f3e0b03645d8f953213ddf5f884f10d8980ac660001b6200035560201b60201c565b6200011a7f3292927c213af50cc6ff1d05fb99eb6a9595fceef2ff460f66cac42846ef051660001b6200035560201b60201c565b81600390816200012b9190620008b4565b50620001607f843faa0e0e819f05d279c2a49084604093ee9e04b88fc754ccf4134ec406580b60001b6200035560201b60201c565b620001947f3a63b6b1f1989cf817d22774f822131dba2f9f4d9940c457d106dd13efb4d27c60001b6200035560201b60201c565b8060049081620001a59190620008b4565b505050620001dc7fe0a4eb2b23b1af786b003df12d7e2f648c264041a82378ad7bcc4d21232e86cc60001b6200035860201b60201c565b620002107f1f4577926836c260d857cf48eaafd40deafbdf9361243668dd5a2d4ec6bd4a0660001b6200035860201b60201c565b620002447f98066ba79b8065f9f8e22beaac6294863e943855d3a298a3d989c92e0e4eeb9560001b6200035860201b60201c565b6000600560006101000a81548160ff021916908315150217905550620002937f17c91d067e35df8743690778708a8f75b1e7e91c6bf21247f6d2c3198fab211160001b6200035b60201b60201c565b620002c77f51e406870e2e01d4973201968c2dd02be2f0c0c6863bb8eb0e06e36deb6ac6a760001b6200035b60201b60201c565b620002fb7f6e1ee6a5fadb81b59efce1d378796fdad848743b526834aa40fbb9da94453e1460001b6200035b60201b60201c565b6200031b6200030f6200035e60201b60201c565b6200040260201b60201c565b6200034f7f9daa83ba8ab71a083b8ec01dc612cf0d5765743246ff3d6068a1beff5d23113660001b6200063460201b60201c565b6200099b565b50565b50565b50565b6000620003947fb29e914578184202431b73774e97783de13a200198c84e5ba14226fb4e65c18e60001b6200063760201b60201c565b620003c87fe1817f83480d066d7b84eac854baac84085321169003e0eefbc76aa70ba3182b60001b6200063760201b60201c565b620003fc7f6fce97823b7f6182aa51f5afe9156c17291ace0d85093baf8db8b02a11363a1160001b6200063760201b60201c565b33905090565b620004367fb5d54d37462e594c13c45beab846dba2e2e8d6bd9c4f9f7170f735f8c006067a60001b6200035b60201b60201c565b6200046a7f6ff75fe6177140ed59daa1e76c0e2b0e7cc4cf0e187b13ee59a3a85f7ed70c2060001b6200035b60201b60201c565b6200049e7f06b3e95760e8882d20a8ef506779c375d494a05f9baa6ac14c7590eee842c92e60001b6200035b60201b60201c565b6000600560019054906101000a900473ffffffffffffffffffffffffffffffffffffffff169050620004f97f85d514e11d0e4b4dd6701fa27a3c18d666625795d854906f397e638d083b29c160001b6200035b60201b60201c565b6200052d7f0a31d596f606a20bbf9006a5a90836e1016db759166cea69bf513fbd110e6f6f60001b6200035b60201b60201c565b81600560016101000a81548173ffffffffffffffffffffffffffffffffffffffff021916908373ffffffffffffffffffffffffffffffffffffffff160217905550620005a27ffa803c80986ea265e0ad3092bbaeb47694e2b4528f90755ef511ff8e437baf0d60001b6200035b60201b60201c565b620005d67ffc789fe150922b1b36bab349210684dbbc49910c8c377dfd7e58b2d3d78a666c60001b6200035b60201b60201c565b8173ffffffffffffffffffffffffffffffffffffffff168173ffffffffffffffffffffffffffffffffffffffff167f8be0079c531659141344cd1fd0a4f28419497f9722a3daafe3b4186f6b6457e060405160405180910390a35050565b50565b50565b600081519050919050565b7f4e487b7100000000000000000000000000000000000000000000000000000000600052604160045260246000fd5b7f4e487b7100000000000000000000000000000000000000000000000000000000600052602260045260246000fd5b60006002820490506001821680620006bc57607f821691505b602082108103620006d257620006d162000674565b5b50919050565b60008190508160005260206000209050919050565b60006020601f8301049050919050565b600082821b905092915050565b6000600883026200073c7fffffffffffffffffffffffffffffffffffffffffffffffffffffffffffffffff82620006fd565b620007488683620006fd565b95508019841693508086168417925050509392505050565b6000819050919050565b6000819050919050565b6000620007956200078f620007898462000760565b6200076a565b62000760565b9050919050565b6000819050919050565b620007b18362000774565b620007c9620007c0826200079c565b8484546200070a565b825550505050565b600090565b620007e0620007d1565b620007ed818484620007a6565b505050565b5b81811015620008155762000809600082620007d6565b600181019050620007f3565b5050565b601f82111562000864576200082e81620006d8565b6200083984620006ed565b8101602085101562000849578190505b620008616200085885620006ed565b830182620007f2565b50505b505050565b600082821c905092915050565b6000620008896000198460080262000869565b1980831691505092915050565b6000620008a4838362000876565b9150826002028217905092915050565b620008bf826200063a565b67ffffffffffffffff811115620008db57620008da62000645565b5b620008e78254620006a3565b620008f482828562000819565b600060209050601f8311600181146200092c576000841562000917578287015190505b62000923858262000896565b86555062000993565b601f1984166200093c86620006d8565b60005b8281101562000966578489015182556001820191506020850194506020810190506200093f565b8683101562000986578489015162000982601f89168262000876565b8355505b6001600288020188555050505b505050505050565b6141ff80620009ab6000396000f3fe608060405234801561001057600080fd5b50600436106101165760003560e01c806370a08231116100a257806395d89b411161007157806395d89b41146102ab578063a457c2d7146102c9578063a9059cbb146102f9578063dd62ed3e14610329578063f2fde38b1461035957610116565b806370a0823114610249578063715018a6146102795780638456cb59146102835780638da5cb5b1461028d57610116565b8063313ce567116100e9578063313ce567146101b757806339509351146101d55780633f4ba83a1461020557806340c10f191461020f5780635c975abb1461022b57610116565b806306fdde031461011b578063095ea7b31461013957806318160ddd1461016957806323b872dd14610187575b600080fd5b610123610375565b6040516101309190613870565b60405180910390f35b610153600480360381019061014e919061392b565b61048b565b6040516101609190613986565b60405180910390f35b6101716105e3565b60405161017e91906139b0565b60405180910390f35b6101a1600480360381019061019c91906139cb565b610671565b6040516101ae9190613986565b60405180910390f35b6101bf61082d565b6040516101cc9190613a3a565b60405180910390f35b6101ef60048036038101906101ea919061392b565b6108ba565b6040516101fc9190613986565b60405180910390f35b61020d610a26565b005b6102296004803603810190610224919061392b565b610b6c565b005b610233610cb6565b6040516102409190613986565b60405180910390f35b610263600480360381019061025e9190613a55565b610d51565b60405161027091906139b0565b60405180910390f35b610281610e1d565b005b61028b610f65565b005b6102956110ab565b6040516102a29190613a91565b60405180910390f35b6102b3611159565b6040516102c09190613870565b60405180910390f35b6102e360048036038101906102de919061392b565b61126f565b6040516102f09190613986565b60405180910390f35b610313600480360381019061030e919061392b565b61154f565b6040516103209190613986565b60405180910390f35b610343600480360381019061033e9190613aac565b6116a7565b60405161035091906139b0565b60405180910390f35b610373600480360381019061036e9190613a55565b6117b2565b005b60606103a37fe1ad4be3d51e58b97a3210afd006c3d36e76bc05f665b5a20ea96a8b92e9fd9160001b611a19565b6103cf7f94261b97218072707081676ac30b8d3e90d2a7a106e33c3b17d9453c5ad95cfa60001b611a19565b6103fb7f9caa3d48614d56d9269e80db1983fa6ed24fef87921504844a27350d75f20e8760001b611a19565b6003805461040890613b1b565b80601f016020809104026020016040519081016040528092919081815260200182805461043490613b1b565b80156104815780601f1061045657610100808354040283529160200191610481565b820191906000526020600020905b81548152906001019060200180831161046457829003601f168201915b5050505050905090565b60006104b97f83c5ee456c5df648396ee522f88aaf2aff1286a3218b3ccaaa55de9f0529337f60001b611a19565b6104e57f2588105b505da622a6ab8e406f1fed02faa90bcf8481477e9c6b8e4265ef7bd360001b611a19565b6105117f7bf4b0183ead3bd09ab9bb079b6919b44171db2c4df3951adf05f4ca25c1722860001b611a19565b600061051b611a1c565b90506105497f09b2bea482d101d636e1858ca226647d22e3ecf5c4a5019c7797a68548104fd660001b611a19565b6105757fdf0afb7792aa971866446814c973b35a074d832b9ada5f5e52bc3c033fc1277260001b611a19565b610580818585611aa8565b6105ac7feb378c241fd268b0b1fd218487228606c3b31c90c485525010156afc2b4bd69560001b611a19565b6105d87f1cf958c2206d51a50bb335cfb72ba142b87fb347f29867b75439af13b3bedaaa60001b611a19565b600191505092915050565b60006106117f4cbafa89b9e816afd5da8cc63472d71f91495aa432e5d638d9b76e5bf60f98a460001b611a19565b61063d7f76616ca039d0d72c2df0b92965ffc230c0293db6dd81d99b4eabfd5b1c9633c460001b611a19565b6106697f39e7348d714b7ad0e57cc1aad91bdffdec6518d01d2aafca918fe1f04a7f734f60001b611a19565b600254905090565b600061069f7f78cc0444f3dace487cdd1089a17c8f111eaf89e20d52f691d9e3f83c058a379960001b611a19565b6106cb7f9100e9207d73dd26179a70d41c8436c5f37960470202d0fa2d290d543c6cb56460001b611a19565b6106f77fbe8b5e910bfe9b6e22212e442767f7bd30def363f724521efb4a2707d6c8957360001b611a19565b6000610701611a1c565b905061072f7f98087ad8b90fc07bdfebaa5e74c27b1b6292633090a3fbaacec787d2108fa85560001b611a19565b61075b7fce883cecd160612361dfffc3548a3c7dc930f3f14e3b6315b7421b5198fac0e860001b611a19565b610766858285611ead565b6107927f7eed8d7344831a70c14184b284263b97d451c0a3127f830fece72f32cf90689760001b611a19565b6107be7f1eddce4415d6e3db6ec857edf6f443f6dff5ee76fee47221ff8437a04c470c0660001b611a19565b6107c98585856121a6565b6107f57f75a2be2f59e4ddc55cc12bea1a8e1f54a34a90a53074c654cedea3ceb4c159f960001b611a19565b6108217fa64c89c1be2ee009b72adb6de16efc7a72c6322e4b5c0f1c6263dd170c23630960001b611a19565b60019150509392505050565b600061085b7fbec7e6ccc547ec42e8489d0befdb2fe6dd7587c2bd978194bbdf7c34bc011c9260001b611a19565b6108877f1e46798b3493269e08e3ed31e7355b2ebbcc3dd18353deca01e4114542b4baac60001b611a19565b6108b37f762dd60da0d7d82ec24795b7e9424e248851e0ecebda3f0e4b5b661c2e1ee03060001b611a19565b6012905090565b60006108e87f6e874490f81f1ff08398dc2866ffc5e76c7ea31983b1260f5a994308798f1c7b60001b611a19565b6109147f518d135a385c8c90baba45146f32c1e14998a27964be96ad12b5b25cb022dc5660001b611a19565b6109407f4df43c53d2cb04cc6e2c6d333117fc7191b4b446c25f5a4987d85396ed7e25ea60001b611a19565b600061094a611a1c565b90506109787f8dc8691e0e2a98de1263d85226359ab280f0a90e1b7942dceefe8eec0cb1871b60001b611a19565b6109a47fef416bd6a575eb86596427c7428c3ffc727aa281d3b90534f0041b66220cb77260001b611a19565b6109c38185856109b485896116a7565b6109be9190613b7b565b611aa8565b6109ef7f5e8bc0bcdc2f76db893135bbb8418a6370061d0ccd5468aa30ee27697a7ed79d60001b611a19565b610a1b7f2cd102f1087f54c44a91101a7deee4634a02541f4a8ac549e6f2d87ae3e225d260001b611a19565b600191505092915050565b610a527f0fce8c8d751ed39d70f6872fa207db3755acd8d1362d46c4214362b0c903034360001b612893565b610a7e7fd99f82efba5d3cf56c00cac15eb98c5c876cdce68e71ab793f45084c102a4dc960001b612893565b610aaa7f1f418a3aac68fd46ab589f9da765ca7970400cdde0cdcaff4f86bf7c66b81f1360001b612893565b610ab2612896565b610ade7f94ff7fa15b979e0339520ced0b89acb8a878c955a7762e87d0119153c823db9760001b612893565b610b0a7f1506af56fbcee91e65bdff57bfb021c81909625ae6190170cd2413c4e928292960001b6129f0565b610b367fb124e18a74613800315138827bb55b531f1066127b116afb2b6287ed2533ea4e60001b6129f0565b610b627fd1c1cb2aafdac8812119c77faf1c418f129038591c8af46d61d075cae6fbf58d60001b6129f0565b610b6a6129f3565b565b610b987f0fce8c8d751ed39d70f6872fa207db3755acd8d1362d46c4214362b0c903034360001b612893565b610bc47fd99f82efba5d3cf56c00cac15eb98c5c876cdce68e71ab793f45084c102a4dc960001b612893565b610bf07f1f418a3aac68fd46ab589f9da765ca7970400cdde0cdcaff4f86bf7c66b81f1360001b612893565b610bf8612896565b610c247f94ff7fa15b979e0339520ced0b89acb8a878c955a7762e87d0119153c823db9760001b612893565b610c507fac5f7d14707849055ca5b5c0bcc69b3b1b2c467777fc90b005ccffd0838c539b60001b6129f0565b610c7c7fb7d85bbec19b5dc7151148223d92b920b4924c7a9ecff46af7c506a688445b7460001b6129f0565b610ca87fdff310b330cc7642f4b0f8273d5fdb2daa748c44f25f295d10e0e8fe8fd2122460001b6129f0565b610cb28282612be2565b5050565b6000610ce47fd4e54e22fe07cc8ec2f4c1884828c9042bcb16ef214363192d5abde1a672eb7e60001b612ff8565b610d107f59b9456013d67e29fbd63c39f51ccac1e8bf6e88abd17593e8ee90b5bc3793b860001b612ff8565b610d3c7f70d43ebb5f48afce83b0cad5466c72dc7e3b67a4f1de7f0c8642243b2d0ddb7260001b612ff8565b600560009054906101000a900460ff16905090565b6000610d7f7f7f69ef92fabd135cd431da079f833c570abd3cefc55854e987f608dde1cb1e0760001b611a19565b610dab7fea5b63891dd62eab5add0e4cae5b60fe887025a37243bd1930e3d375fa662af760001b611a19565b610dd77f3912ff15d7aec1f3445bb85f94ca5b04278a9b23652b269e57dd06b5dfa330ff60001b611a19565b6000808373ffffffffffffffffffffffffffffffffffffffff1673ffffffffffffffffffffffffffffffffffffffff168152602001908152602001600020549050919050565b610e497f0fce8c8d751ed39d70f6872fa207db3755acd8d1362d46c4214362b0c903034360001b612893565b610e757fd99f82efba5d3cf56c00cac15eb98c5c876cdce68e71ab793f45084c102a4dc960001b612893565b610ea17f1f418a3aac68fd46ab589f9da765ca7970400cdde0cdcaff4f86bf7c66b81f1360001b612893565b610ea9612896565b610ed57f94ff7fa15b979e0339520ced0b89acb8a878c955a7762e87d0119153c823db9760001b612893565b610f017ffb6753a3687ad36bdbc75cdadff651380524a431bd16e4894d0e76eb2de5efeb60001b612893565b610f2d7f7ef6c551bbcabe1616a0cb46c626f36e4ae53104d47ca447ec309b16f12e5bef60001b612893565b610f597f95a30a594b213df1c34bc4df361e7c27b693c00c5f10b27f9a1fed6041587a7b60001b612893565b610f636000612ffb565b565b610f917f0fce8c8d751ed39d70f6872fa207db3755acd8d1362d46c4214362b0c903034360001b612893565b610fbd7fd99f82efba5d3cf56c00cac15eb98c5c876cdce68e71ab793f45084c102a4dc960001b612893565b610fe97f1f418a3aac68fd46ab589f9da765ca7970400cdde0cdcaff4f86bf7c66b81f1360001b612893565b610ff1612896565b61101d7f94ff7fa15b979e0339520ced0b89acb8a878c955a7762e87d0119153c823db9760001b612893565b6110497fc4f5a276869cc35b3b6f45acd74d2a4e356cad544d1f4d08e85c9f18a424144e60001b6129f0565b6110757f0776e6991e8724601091db10f43f2d0e64ec6c402ae1d648c2753b94f9cedb1060001b6129f0565b6110a17ff702b008d33a8a112f801373fc8729ee746984a7b1db2de49200d43b128bf56c60001b6129f0565b6110a96131f5565b565b60006110d97fd9fd44d0c3caefaa75e4173fe9eece54b8a967ea15448eec9d20d4b0dd82bfe160001b612893565b6111057ffb64a5eb5213f3d3e868b3add0c6303a04aef2935d4c055647367935ee8a692260001b612893565b6111317f70c6fe9f69c3100d595735a477a2aef0a9d08887cdba6fca5ea052f0a22e2c6e60001b612893565b600560019054906101000a900473ffffffffffffffffffffffffffffffffffffffff16905090565b60606111877fe6ba68a15bcc0854fc45ac2b9670d54ebb066741e6844bc5bff90f0aa1ae91db60001b611a19565b6111b37f483ce282f8f718a9a69b79d1ba32c8900b51500f2bba134896871103e589292760001b611a19565b6111df7fa885e4c7002b096530da062b71b210f19cf27d84af92a4d65092568eeffecd9a60001b611a19565b600480546111ec90613b1b565b80601f016020809104026020016040519081016040528092919081815260200182805461121890613b1b565b80156112655780601f1061123a57610100808354040283529160200191611265565b820191906000526020600020905b81548152906001019060200180831161124857829003601f168201915b5050505050905090565b600061129d7f89649ed5c1f78fe557e4af1b01de5ffa974ec9debba44c6061c3917bd358589c60001b611a19565b6112c97f185f2e998a55fd1e028e840fb3df60b7d6d24599e2af30fc4b26adca63c544bc60001b611a19565b6112f57f229b1d1ca418bc245937428713ad4128a3d75ab49ef687b3238cc2cd5f63c0e260001b611a19565b60006112ff611a1c565b905061132d7f3e2e4b07f1d43a0526bb032e09fa6b40b4a2aaf6281d7cc46ef1b7976e02567860001b611a19565b6113597f4ee315aa506923a871003eeeb232fc79f34e7d518ae0427322da0c131d2d090d60001b611a19565b600061136582866116a7565b90506113937f99aa903c59d1660d6fa7db2fefef69cb60bae2954ab2fa262aede5dee612348f60001b611a19565b6113bf7ff03669a15efaf8636bd76f2468afba427d4f4d5d8e28b9572e23faccafdd6f6260001b611a19565b6113eb7f382f36f92dfcad4bc3c50a8c44daba4d77b93be7df6c693ea1ac7ebf39cb788b60001b611a19565b8381101561142e576040517f08c379a000000000000000000000000000000000000000000000000000000000815260040161142590613c21565b60405180910390fd5b61145a7f48692dc4ce2c01a62a1e83058c1a24a4224158010fe09a52f15ee4fd2b3e432760001b611a19565b6114867f121a963094a44e197a86b446aa517d8f01c9d495f9b463f9071412da3d0740ec60001b611a19565b6114b27fdb82512e4b3e2b8a49812cf715befb7a7787164d098547df75f0f6b5812042e260001b611a19565b6114de7f3feb8fd6f3317a8d83a0b45d012cc6cafde605614657640f6d2d72f49941315160001b611a19565b6114eb8286868403611aa8565b6115177f38e02a89cb910e2eee3d2c750f4f69113ef4658c34dac557bfb58de320d2beb860001b611a19565b6115437ff9f182eacd5d7b208c3715f6e3a944a8db92c3d8be878c7b4df97158d88faaa160001b611a19565b60019250505092915050565b600061157d7fce2ed9b266ba03e564ee55ae9abb8f8ff1195af77929d8db5a929b247201b73760001b611a19565b6115a97fbe34a3f420acbb340db3b6ffda3dd98bbf4323843f874f900d71c77a79f6af9660001b611a19565b6115d57f70b3d1fd865cd30ad9cfc20c473e8e0c9a711870607641364785ca53a3d12b3d60001b611a19565b60006115df611a1c565b905061160d7f6e1a2912dadd32b7d37dd0338700b5275fe3043e5f7df00d166a9e2c2aa5865760001b611a19565b6116397f3bdd9d4430ebffb9d362ff2b69de6c957853762a74fb2b116708e6895d6d51de60001b611a19565b6116448185856121a6565b6116707f2a074d58d4dcf70c04e26369d3459aba8be3dffaf3349950c75e533d4b3118b260001b611a19565b61169c7fb5bfb7878ef962fbc44de77af3550aa6875e1ef54d296d4233149ee95db57f8e60001b611a19565b600191505092915050565b60006116d57fcb7d62f9e37f60ff3a3c206e046d5c4573b39088bae4c8d7c7cb3b243f5a9b4d60001b611a19565b6117017f1175d983116f2e1cbc64cfeaf05bb7db0b584190b0d8dc0becc504bcc32b5b5760001b611a19565b61172d7faae594d4a9930c4fc9605b91908280493c8ff5ee7ded94c6e9cb6e35a304156160001b611a19565b600160008473ffffffffffffffffffffffffffffffffffffffff1673ffffffffffffffffffffffffffffffffffffffff16815260200190815260200160002060008373ffffffffffffffffffffffffffffffffffffffff1673ffffffffffffffffffffffffffffffffffffffff16815260200190815260200160002054905092915050565b6117de7f0fce8c8d751ed39d70f6872fa207db3755acd8d1362d46c4214362b0c903034360001b612893565b61180a7fd99f82efba5d3cf56c00cac15eb98c5c876cdce68e71ab793f45084c102a4dc960001b612893565b6118367f1f418a3aac68fd46ab589f9da765ca7970400cdde0cdcaff4f86bf7c66b81f1360001b612893565b61183e612896565b61186a7f94ff7fa15b979e0339520ced0b89acb8a878c955a7762e87d0119153c823db9760001b612893565b6118967f68dda53413c9b41ead9d10b4c9a32db5ac495e73b698f05fb4d77d367959f22060001b612893565b6118c27f958c47187e87d1184958a699a59c4bdf6a2d7aac82aaf012d0c6336dd1d0dd8a60001b612893565b6118ee7f679e206f50de9228c7fe8207ced0b8b7fea4f970994a49c5c7c799ea80f4d07260001b612893565b61191a7f2fcba099d0f5b925e835e9787f6b126f05306fe36526a76c0975d3c8ecc4bfff60001b612893565b600073ffffffffffffffffffffffffffffffffffffffff168173ffffffffffffffffffffffffffffffffffffffff1603611989576040517f08c379a000000000000000000000000000000000000000000000000000000000815260040161198090613cb3565b60405180910390fd5b6119b57f3f9f5dec49188989e14ca7d78ab0c2528ad04b9c59612203ebabe3033a1bffbf60001b612893565b6119e17fc8686fd1713f4ba15824e8412908de1052826054c7a516c225d94dc82472506660001b612893565b611a0d7f8fa8ab6523339001e51437598018a42ca55ae99e27daffa8c915e65d9dbe0a6b60001b612893565b611a1681612ffb565b50565b50565b6000611a4a7fb29e914578184202431b73774e97783de13a200198c84e5ba14226fb4e65c18e60001b6133e4565b611a767fe1817f83480d066d7b84eac854baac84085321169003e0eefbc76aa70ba3182b60001b6133e4565b611aa27f6fce97823b7f6182aa51f5afe9156c17291ace0d85093baf8db8b02a11363a1160001b6133e4565b33905090565b611ad47fdc07a9202bd72ffcd0c5db6aef8b10d8ddca1dec3141f46476aba7c5b83cbf1660001b611a19565b611b007f3283a074629088e037431a5e2012c3bffe58d7ebe1b4d551eba9679e05ee004860001b611a19565b611b2c7f406f6e5ac135b5b4821d225688b4c27bee544eb0df794d083af0ac29f3fd819660001b611a19565b611b587fbb054c536d082aae3d7d4086d142aaf737a3c019640b0612edbada8f2c235fd360001b611a19565b600073ffffffffffffffffffffffffffffffffffffffff168373ffffffffffffffffffffffffffffffffffffffff1603611bc7576040517f08c379a0000000000000000000000000000000000000000000000000000000008152600401611bbe90613d45565b60405180910390fd5b611bf37f208c5a31474b572fcb66670173adf4593df6bdb11fe6aca2e445ae4c81f40ced60001b611a19565b611c1f7f35e2ac5195fe8de356b0136c3df0722e646342391357738245a220ac58bc894d60001b611a19565b611c4b7fe729d3304d24fb6da50d91653664133ae230959a1e3fd0e42aeda7456597be7760001b611a19565b611c777fa951bd651606397c719cb3f8dfb3217e2756754e0e660c48d2d0865fb0266dae60001b611a19565b600073ffffffffffffffffffffffffffffffffffffffff168273ffffffffffffffffffffffffffffffffffffffff1603611ce6576040517f08c379a0000000000000000000000000000000000000000000000000000000008152600401611cdd90613dd7565b60405180910390fd5b611d127ff92024194fad889f9a308b4297bab850406b1524faef9279f0b26406368e600f60001b611a19565b611d3e7f8d130730904f0843ec4755915ae3a8e53f80689103041776aefd444ecc6a18f760001b611a19565b611d6a7fc7639fb8d6e101da1a7c832d0d316517930b68d642b361cf068d0da375f9daef60001b611a19565b80600160008573ffffffffffffffffffffffffffffffffffffffff1673ffffffffffffffffffffffffffffffffffffffff16815260200190815260200160002060008473ffffffffffffffffffffffffffffffffffffffff1673ffffffffffffffffffffffffffffffffffffffff16815260200190815260200160002081905550611e177fe3fc42892765cbf62dafbfcc7ca226002844c162c0c8aa9dc871ef50400fd19f60001b611a19565b611e437ffdf14d9c6a731fea4f9ec679376607bba0b077356c1961d4f85410d9c20b7f0560001b611a19565b8173ffffffffffffffffffffffffffffffffffffffff168373ffffffffffffffffffffffffffffffffffffffff167f8c5be1e5ebec7d5bd14f71427d1e84f3dd0314c0f7b2291e5b200ac8c7c3b92583604051611ea091906139b0565b60405180910390a3505050565b611ed97f8d3a7c5811b7c31fd3c6936743f079fb2270c7dd4b06c958324620fa8403ad3d60001b611a19565b611f057f13fdfc005f0d0ab401df72ba094754bd61b4376a9c42e9df4dee0b4ba962a26c60001b611a19565b611f317fd3bdb7281aed2d1dfef53ffb609a09677f533d8c11354462aa103561d5344d3f60001b611a19565b6000611f3d84846116a7565b9050611f6b7f1dfbaf6fa9ad55b1d1968c3d0e3fe76c23be1542b9f810cb0015d3ada209f49560001b611a19565b611f977f683be8e2c5091bc183408f991530823ea5ec90e3b77bd9d27846a719fa404ad960001b611a19565b7fffffffffffffffffffffffffffffffffffffffffffffffffffffffffffffffff811461217357611fea7fdd1f7b6905c5b122b4154c453990447be7fb94cfab14c182de5b98776528974d60001b611a19565b6120167f710373b755a797781b5e4f0e26731647c770a6046dbaff485a2878bcdc754c4660001b611a19565b6120427fe134b00ce45809779f5780b52e4f953f5e745356cc610494f291e00e8fa17b3060001b611a19565b61206e7f40ed7fc752b23a8d810b8ea8197fe8acb88c05ef1d700ea3f045e3be4d1fffb160001b611a19565b818110156120b1576040517f08c379a00000000000000000000000000000000000000000000000000000000081526004016120a890613e43565b60405180910390fd5b6120dd7fdbfadc8f8b37933521cbc5770cf700fa78678dd4938ae4fbd5095b7305961b2360001b611a19565b6121097f9929cb4449572f8e9b06b048af95fe13575e1f71a8e352d8ad5d3e12f63e5b6b60001b611a19565b6121357f0caa04e638e1b71fba015c886043be1b37c588978281a78dc7f5b4c080310fa260001b611a19565b6121617fb18e64f24395c6a2474a678a1a104bec68ce3206dba10d50a83d01b6c49aa52f60001b611a19565b61216e8484848403611aa8565b6121a0565b61219f7fe83be30c69e58ee13d4d41ff3d32a6cc139db1ee949e9a30ce4e30773536883e60001b611a19565b5b50505050565b6121d27f2aa13b48129af0c292b96541a0b34d5205c2d3311ee8d7980b1c5e8d6b27973960001b611a19565b6121fe7f7807fa76f122dbe85359583ef4188531bb28d4e6179d5fac1635ae2a3790f06a60001b611a19565b61222a7f86b488cd9af78e8b17d9ac93e8d0a017faf7fc5f2991ecd42e957beef4ff79aa60001b611a19565b6122567f9b808ac1ef36fd1b91bc7e84c11e54c4e36fc93c9a1c0c47c9cf08bc16181be760001b611a19565b600073ffffffffffffffffffffffffffffffffffffffff168373ffffffffffffffffffffffffffffffffffffffff16036122c5576040517f08c379a00000000000000000000000000000000000000000000000000000000081526004016122bc90613ed5565b60405180910390fd5b6122f17fad920ef3cc1e9c5071567673489aa602f813202d98b0cacfa1a07d23386e438a60001b611a19565b61231d7faf23f515fcffdbac067e974e48d63f0d5c725cb2061d24e317ca9e8fc704608760001b611a19565b6123497f84be7b8c23a50bab38611e95d3d13bf4be8c26304ca2a98934c04c83d6d77e1960001b611a19565b6123757f8fd37bdfc617f4df4c70da3e9ecb3ffff9bcff9c9bfa9677ab04c7fa76682b5460001b611a19565b600073ffffffffffffffffffffffffffffffffffffffff168273ffffffffffffffffffffffffffffffffffffffff16036123e4576040517f08c379a00000000000000000000000000000000000000000000000000000000081526004016123db90613f67565b60405180910390fd5b6124107fba5afafaa2be30a81d509341f706303c76d707d8a7408933b01c10a3353c0ab660001b611a19565b61243c7f2913566717848f1adcb10a389434f655efe7696a6801063b55df98307333dc5360001b611a19565b6124687fd4e1ff07441dab06fe781eb86e313d43ce98da024a4eb0a338abf8c8fd09efd660001b611a19565b6124738383836133e7565b61249f7f06dfce5e41f20e9935406fddd673c47dd48680faf0342ccdd01b39e99c24678e60001b611a19565b6124cb7f4182a34a10f87d469f3371b917bfc9d2bc18a169d2da513b882186a894c9fe4060001b611a19565b60008060008573ffffffffffffffffffffffffffffffffffffffff1673ffffffffffffffffffffffffffffffffffffffff16815260200190815260200160002054905061253a7fb415d247d656b632be4f58d4bc322fa4553fb0539a85ad6b8e397416910bad8360001b611a19565b6125667fd36dade7b15b6a6e134c38891e21e1d26697923d5eb57ed86cd6e8e79df772a060001b611a19565b6125927f8d6a25bc960ae8fbe0bfdfa135ab6ba499d171404f8c868c0d8e17088a1148ba60001b611a19565b818110156125d5576040517f08c379a00000000000000000000000000000000000000000000000000000000081526004016125cc90613ff9565b60405180910390fd5b6126007e40a73995975021992c34bede509f64bc59c5fba81858f6bb86702db6be291460001b611a19565b61262c7ff69f3f37a6aa31fd274e427c8434538f10ee5e4646b123a5d8edd6336c6338f960001b611a19565b6126587f86293833c5c7bd63107620d83696b9777ddd296c381493b6d7210ad6bbc6dbe560001b611a19565b6126847f4e911f2d86939313e0d610a8c35743c5978d0d5599b7a5991846b0ff86d4e2fd60001b611a19565b8181036000808673ffffffffffffffffffffffffffffffffffffffff1673ffffffffffffffffffffffffffffffffffffffff168152602001908152602001600020819055506126f57f07f516c07e92282a1764962033e9d68a993dddf388a74102b241dc1aefd2bd2660001b611a19565b6127217f1131f0bd58e80b71ef4bd5c3690d1278176f6a3a2e1c0deceb9fcd20e4d9ef4160001b611a19565b816000808573ffffffffffffffffffffffffffffffffffffffff1673ffffffffffffffffffffffffffffffffffffffff168152602001908152602001600020600082825401925050819055506127997fe31e8a4f82020ab1b886f6a4143dbe48ea68fa63c3111336b1ef477ddef2b7ac60001b611a19565b6127c57f1d1d071da87d4b22645378dfefb646359ce8700640a9a31a3c3dcaca819b0be460001b611a19565b8273ffffffffffffffffffffffffffffffffffffffff168473ffffffffffffffffffffffffffffffffffffffff167fddf252ad1be2c89b69c2b068fc378daa952ba7f163c4a11628f55a4df523b3ef8460405161282291906139b0565b60405180910390a36128567f81b67f964156ee53506088d0055a2a305b71ba10d06615571c0a9a1b4483045160001b611a19565b6128827fc77968ecf16dadd002a23eee10fcfe7d7c321fecc1e943de885f7b7042029ed060001b611a19565b61288d848484613533565b50505050565b50565b6128c27ff54d771f29e83f09ea7820f7e744691e8f9577a96a41330aa2f1b6d03c20fdbd60001b612893565b6128ee7f700360c26aea01a7dfd1d4edf938f46eb748cd7751121816f2ff7ee8dc0e182a60001b612893565b61291a7f0cb6168c2e73e9113fdb55c43dd7f2f657576e7051c57596ebb83757c93dd8ea60001b612893565b6129467f826caf7219aff55d56917c4c16a513b930353b22bdbe71c9f5cc7176cbdf515e60001b612893565b61294e611a1c565b73ffffffffffffffffffffffffffffffffffffffff1661296c6110ab565b73ffffffffffffffffffffffffffffffffffffffff16146129c2576040517f08c379a00000000000000000000000000000000000000000000000000000000081526004016129b990614065565b60405180910390fd5b6129ee7f3c83f62c5090a122902b942d0a6d32e57ffebcccd0d61fa7f38fa2d7def6d2f360001b612893565b565b50565b612a1f7fe48220c8822cd4a8e31e032bc8d3495702437207de8d7de8a015d9cf60b4465f60001b612ff8565b612a4b7fa10e5c41dc172b6537de6784cf491165b66af65af3f9a361177279c5f465516860001b612ff8565b612a777f0d96bd9c2822aeeae8b39e449eb15715b13679900fdd500373887c8e3d81d28660001b612ff8565b612a7f613564565b612aab7f52e662546fe87bd682d3253fcba14de891b28312e97e1bb98c1b2e1223dc083060001b612ff8565b612ad77ffe396259fc74ed8146dda4c3c5db2e4b16f90d6c1d5b1d65672e932c20e77f5d60001b612ff8565b612b037ffd8a8d9f336b1eecdd77f410b673b574a2d534e23facf11a321222400dc186bb60001b612ff8565b612b2f7f22363f70dde1ff26d54f442ece4f58d7b3bc834cadbc4a8f646015aa9fc87f7560001b612ff8565b6000600560006101000a81548160ff021916908315150217905550612b767ff5e377ae734fc60d1d828364b956a613ae97df47a81feeea76982581990a614c60001b612ff8565b612ba27ffdc559c3c7055d270c4f224cb8f6168e514ce93886101d332a0b4cd088c9d60960001b612ff8565b7f5db9ee0a495bf2e6ff9c91a7834c1ba4fdd244a5e8aa4e537bd38aeae4b073aa612bcb611a1c565b604051612bd89190613a91565b60405180910390a1565b612c0e7fb3cf0ce6e7024cacc3b3cb98f2b5fbbca43cbe8a3e7b4625af8e3fa8f76ca72460001b611a19565b612c3a7f2b39aa3e4bbaf1b687061ad98e3b2753ffa90913b7e1095d75db382f6a8d34e960001b611a19565b612c667fc04e5353ed53993b59fe78be2584ed6de9d8819f04720bf9d9d667ab34a0761460001b611a19565b612c927f864108e2c93b22d57a7d90ff69632d56a4978d1fc95c6b3c942458f8483ffd9a60001b611a19565b600073ffffffffffffffffffffffffffffffffffffffff168273ffffffffffffffffffffffffffffffffffffffff1603612d01576040517f08c379a0000000000000000000000000000000000000000000000000000000008152600401612cf8906140d1565b60405180910390fd5b612d2d7f728af03a8c9340aafb7f92c814d80fa41780d172834c0acabfa417e3b89b9ce760001b611a19565b612d597f98f9207c5e3532aef3acb0aaca7cb3c8b48244a82f44d53fdd7999ae9f14e57860001b611a19565b612d857fd93b854bb8f3262471d5542808f704b3d3729ef9299d8e2b5f8e8e4b85f4aae760001b611a19565b612d91600083836133e7565b612dbd7f2777f43498ae4a5ed4625aeca5ac4ef0139fb7fc3c922b6cea84050ac3182a7460001b611a19565b612de97f1d68146802426857dd949e214122296a60e453da2723c1e7251b40fc6d1dc2af60001b611a19565b8060026000828254612dfb9190613b7b565b92505081905550612e2e7fc702b537914eea56951f808d9cee3df21962bc82a69155aed7670bf72e3dcc0b60001b611a19565b612e5a7f408c6aaa710286c4bbb80b5e471f8ecca119a856e272cccafbc525c3f1bfda7760001b611a19565b612e867f9d6614209829d8825f9fcd9638765863168087615f7f3e02dcb52ba7942aa9c760001b611a19565b806000808473ffffffffffffffffffffffffffffffffffffffff1673ffffffffffffffffffffffffffffffffffffffff16815260200190815260200160002060008282540192505081905550612efe7f57e153673a1c35a2781c40cef60659af73d51a000c8764972b2811e94b7b709c60001b611a19565b612f2a7fd704fe6adfae4ac487d59c41643d534b92b51c9222e56062c1694b5ce2d605c360001b611a19565b8173ffffffffffffffffffffffffffffffffffffffff16600073ffffffffffffffffffffffffffffffffffffffff167fddf252ad1be2c89b69c2b068fc378daa952ba7f163c4a11628f55a4df523b3ef83604051612f8891906139b0565b60405180910390a3612fbc7fd7ff00265ac7a00cd4331e41772d3ba5a9636852a2232da24434d8c5700fa72a60001b611a19565b612fe87f9af6b60ce71d07aa32ef504bf2c2655c3bf682c2e6ba1e567f14535a5e73935c60001b611a19565b612ff460008383613533565b5050565b50565b6130277fb5d54d37462e594c13c45beab846dba2e2e8d6bd9c4f9f7170f735f8c006067a60001b612893565b6130537f6ff75fe6177140ed59daa1e76c0e2b0e7cc4cf0e187b13ee59a3a85f7ed70c2060001b612893565b61307f7f06b3e95760e8882d20a8ef506779c375d494a05f9baa6ac14c7590eee842c92e60001b612893565b6000600560019054906101000a900473ffffffffffffffffffffffffffffffffffffffff1690506130d27f85d514e11d0e4b4dd6701fa27a3c18d666625795d854906f397e638d083b29c160001b612893565b6130fe7f0a31d596f606a20bbf9006a5a90836e1016db759166cea69bf513fbd110e6f6f60001b612893565b81600560016101000a81548173ffffffffffffffffffffffffffffffffffffffff021916908373ffffffffffffffffffffffffffffffffffffffff16021790555061316b7ffa803c80986ea265e0ad3092bbaeb47694e2b4528f90755ef511ff8e437baf0d60001b612893565b6131977ffc789fe150922b1b36bab349210684dbbc49910c8c377dfd7e58b2d3d78a666c60001b612893565b8173ffffffffffffffffffffffffffffffffffffffff168173ffffffffffffffffffffffffffffffffffffffff167f8be0079c531659141344cd1fd0a4f28419497f9722a3daafe3b4186f6b6457e060405160405180910390a35050565b6132217f13c68b638d7068f790b4bce87bc5eb5eafcb95f9821be52e76787741e2fc157c60001b612ff8565b61324d7f060402d98753b9bf6f6097d0e0c7a53169bb6f53498873fd6423e495a2f1a17960001b612ff8565b6132797f3abfe52ffeea0fd92990ab98089ce7bd43e6dc4436006f5772359dc3cfbb279960001b612ff8565b613281613689565b6132ad7f3f3da473eb50fd6b44796c3d01e79096c0c94b6da63dad20ae03dec945d4c45660001b612ff8565b6132d97f66960a10935fa8a8f8ba0423dff90353015a0d67e539bc3032e1e172506add6860001b612ff8565b6133057f7c52ba535df489f9bc12bc5b8d070870a8a3a74aaca3163687bfaaf1c70f19a660001b612ff8565b6133317fa3744f67d7911dea79e6617ca68396e328d5dfb3ad0908f944eed2d7577bdf2d60001b612ff8565b6001600560006101000a81548160ff0219169083151502179055506133787f6fc4208b5986cf24c8acc8b380ef3b9bf615fcca4d61389067d717845464de4060001b612ff8565b6133a47fc27503e93c7db94824ee138e26dbad2c1feabea1ace6177638eed73ac80aed0060001b612ff8565b7f62e78cea01bee320cd4e420270b5ea74000d11b0c9f74754ebdbfc544b05a2586133cd611a1c565b6040516133da9190613a91565b60405180910390a1565b50565b6134137f13c68b638d7068f790b4bce87bc5eb5eafcb95f9821be52e76787741e2fc157c60001b612ff8565b61343f7f060402d98753b9bf6f6097d0e0c7a53169bb6f53498873fd6423e495a2f1a17960001b612ff8565b61346b7f3abfe52ffeea0fd92990ab98089ce7bd43e6dc4436006f5772359dc3cfbb279960001b612ff8565b613473613689565b61349f7f3f3da473eb50fd6b44796c3d01e79096c0c94b6da63dad20ae03dec945d4c45660001b612ff8565b6134cb7f314c2c6af0e223ec2cd80780e77d5226acd39eea97daf050c66d5524bdeb3e6360001b6129f0565b6134f77f03604a0f6dee67f6f791b291ce1b125afcc9be096ca5c479b3dcea07e2d3016460001b6129f0565b6135237f62f6dce644450474b7cbbddcf1bea8fb897628f39ab1694be2d6011aa1dd1bb060001b6129f0565b61352e8383836137af565b505050565b61355f7f5b363f92ae94a59f4a06f16c8811bd2b2351357be53fa8fb6ab688546d01862560001b611a19565b505050565b6135907f2acd3d349beb28da8b0f4e2ccd523b91ee8dcf1b68574b113cb30a099bb5d00a60001b612ff8565b6135bc7f6b09f44b0a5b5f0c21c8df6f8ce00b60b2b463bd3ff8ce08f437e692de65fe9a60001b612ff8565b6135e87fecae07280ff6b437da6abb8d95e17dc30f1bfa184601c6f326ff746c8dcc294260001b612ff8565b6136147f13c96cfc5234867eb1e10e501f7c45759c64748ff70540bd7c5a018637207a8f60001b612ff8565b61361c610cb6565b61365b576040517f08c379a00000000000000000000000000000000000000000000000000000000081526004016136529061413d565b60405180910390fd5b6136877fc75d458e7bc8573550d79f562960fe4de5e4d373320c086acfccc44dfed2b92260001b612ff8565b565b6136b57f632e590f2cf96b6331740e81216aebb4185e9f66c8bfc8198fa8aad11fcd43ca60001b612ff8565b6136e17f38a8b175f6c98cec261187e497f9a3b15c320963c1df7c05150a30b734e8c38060001b612ff8565b61370d7f207d51b32db362a2d08ac01c0f42eec8e07e4b82ecc610861a5557767079bd0160001b612ff8565b6137397f9dbaf0903288e1852e83fe0bb3452c5a284228e57734309833cd97f944f7d75660001b612ff8565b613741610cb6565b15613781576040517f08c379a0000000000000000000000000000000000000000000000000000000008152600401613778906141a9565b60405180910390fd5b6137ad7fbd63a7dbdf352931b7417920be95af67e58f15fc285ba94dca403fe36c2fdd7b60001b612ff8565b565b6137db7f4432fe9a57f8ebc50dc3a14afcc67318c629bd4cd06d01741657b91c8b8a452e60001b611a19565b505050565b600081519050919050565b600082825260208201905092915050565b60005b8381101561381a5780820151818401526020810190506137ff565b60008484015250505050565b6000601f19601f8301169050919050565b6000613842826137e0565b61384c81856137eb565b935061385c8185602086016137fc565b61386581613826565b840191505092915050565b6000602082019050818103600083015261388a8184613837565b905092915050565b600080fd5b600073ffffffffffffffffffffffffffffffffffffffff82169050919050565b60006138c282613897565b9050919050565b6138d2816138b7565b81146138dd57600080fd5b50565b6000813590506138ef816138c9565b92915050565b6000819050919050565b613908816138f5565b811461391357600080fd5b50565b600081359050613925816138ff565b92915050565b6000806040838503121561394257613941613892565b5b6000613950858286016138e0565b925050602061396185828601613916565b9150509250929050565b60008115159050919050565b6139808161396b565b82525050565b600060208201905061399b6000830184613977565b92915050565b6139aa816138f5565b82525050565b60006020820190506139c560008301846139a1565b92915050565b6000806000606084860312156139e4576139e3613892565b5b60006139f2868287016138e0565b9350506020613a03868287016138e0565b9250506040613a1486828701613916565b9150509250925092565b600060ff82169050919050565b613a3481613a1e565b82525050565b6000602082019050613a4f6000830184613a2b565b92915050565b600060208284031215613a6b57613a6a613892565b5b6000613a79848285016138e0565b91505092915050565b613a8b816138b7565b82525050565b6000602082019050613aa66000830184613a82565b92915050565b60008060408385031215613ac357613ac2613892565b5b6000613ad1858286016138e0565b9250506020613ae2858286016138e0565b9150509250929050565b7f4e487b7100000000000000000000000000000000000000000000000000000000600052602260045260246000fd5b60006002820490506001821680613b3357607f821691505b602082108103613b4657613b45613aec565b5b50919050565b7f4e487b7100000000000000000000000000000000000000000000000000000000600052601160045260246000fd5b6000613b86826138f5565b9150613b91836138f5565b9250828201905080821115613ba957613ba8613b4c565b5b92915050565b7f45524332303a2064656372656173656420616c6c6f77616e63652062656c6f7760008201527f207a65726f000000000000000000000000000000000000000000000000000000602082015250565b6000613c0b6025836137eb565b9150613c1682613baf565b604082019050919050565b60006020820190508181036000830152613c3a81613bfe565b9050919050565b7f4f776e61626c653a206e6577206f776e657220697320746865207a65726f206160008201527f6464726573730000000000000000000000000000000000000000000000000000602082015250565b6000613c9d6026836137eb565b9150613ca882613c41565b604082019050919050565b60006020820190508181036000830152613ccc81613c90565b9050919050565b7f45524332303a20617070726f76652066726f6d20746865207a65726f2061646460008201527f7265737300000000000000000000000000000000000000000000000000000000602082015250565b6000613d2f6024836137eb565b9150613d3a82613cd3565b604082019050919050565b60006020820190508181036000830152613d5e81613d22565b9050919050565b7f45524332303a20617070726f766520746f20746865207a65726f20616464726560008201527f7373000000000000000000000000000000000000000000000000000000000000602082015250565b6000613dc16022836137eb565b9150613dcc82613d65565b604082019050919050565b60006020820190508181036000830152613df081613db4565b9050919050565b7f45524332303a20696e73756666696369656e7420616c6c6f77616e6365000000600082015250565b6000613e2d601d836137eb565b9150613e3882613df7565b602082019050919050565b60006020820190508181036000830152613e5c81613e20565b9050919050565b7f45524332303a207472616e736665722066726f6d20746865207a65726f20616460008201527f6472657373000000000000000000000000000000000000000000000000000000602082015250565b6000613ebf6025836137eb565b9150613eca82613e63565b604082019050919050565b60006020820190508181036000830152613eee81613eb2565b9050919050565b7f45524332303a207472616e7366657220746f20746865207a65726f206164647260008201527f6573730000000000000000000000000000000000000000000000000000000000602082015250565b6000613f516023836137eb565b9150613f5c82613ef5565b604082019050919050565b60006020820190508181036000830152613f8081613f44565b9050919050565b7f45524332303a207472616e7366657220616d6f756e742065786365656473206260008201527f616c616e63650000000000000000000000000000000000000000000000000000602082015250565b6000613fe36026836137eb565b9150613fee82613f87565b604082019050919050565b6000602082019050818103600083015261401281613fd6565b9050919050565b7f4f776e61626c653a2063616c6c6572206973206e6f7420746865206f776e6572600082015250565b600061404f6020836137eb565b915061405a82614019565b602082019050919050565b6000602082019050818103600083015261407e81614042565b9050919050565b7f45524332303a206d696e7420746f20746865207a65726f206164647265737300600082015250565b60006140bb601f836137eb565b91506140c682614085565b602082019050919050565b600060208201905081810360008301526140ea816140ae565b9050919050565b7f5061757361626c653a206e6f7420706175736564000000000000000000000000600082015250565b60006141276014836137eb565b9150614132826140f1565b602082019050919050565b600060208201905081810360008301526141568161411a565b9050919050565b7f5061757361626c653a2070617573656400000000000000000000000000000000600082015250565b60006141936010836137eb565b915061419e8261415d565b602082019050919050565b600060208201905081810360008301526141c281614186565b905091905056fea264697066735822122062d45102ae22fb3134b8ce5d090a83662ba5c00d03470cd3ef4f1717f584873c64736f6c63430008110033",
  "linkReferences": {},
  "deployedLinkReferences": {}
}